{
	"perpus.sol": {
		"Perpus": {
			"abi": [
				{
					"inputs": [
						{
							"internalType": "uint256",
							"name": "_isbn",
							"type": "uint256"
						}
					],
					"name": "hapusBuku",
					"outputs": [],
					"stateMutability": "nonpayable",
					"type": "function"
				},
				{
					"inputs": [
						{
							"internalType": "uint256",
							"name": "",
							"type": "uint256"
						}
					],
					"name": "listOfBooks",
					"outputs": [
						{
							"internalType": "uint256",
							"name": "isbn",
							"type": "uint256"
						},
						{
							"internalType": "string",
							"name": "tittle",
							"type": "string"
						},
						{
							"internalType": "uint256",
							"name": "yearBookCreated",
							"type": "uint256"
						},
						{
							"internalType": "string",
							"name": "writerName",
							"type": "string"
						},
						{
							"internalType": "address",
							"name": "writerAddress",
							"type": "address"
						}
					],
					"stateMutability": "view",
					"type": "function"
				},
				{
					"inputs": [
						{
							"internalType": "uint256",
							"name": "_isbn",
							"type": "uint256"
						},
						{
							"internalType": "string",
							"name": "_tittle",
							"type": "string"
						},
						{
							"internalType": "uint256",
							"name": "_yearBookCreated",
							"type": "uint256"
						},
						{
							"internalType": "string",
							"name": "_writerName",
							"type": "string"
						},
						{
							"internalType": "address",
							"name": "_writerAddress",
							"type": "address"
						}
					],
					"name": "tambahBuku",
					"outputs": [],
					"stateMutability": "nonpayable",
					"type": "function"
				}
			],
			"devdoc": {
				"kind": "dev",
				"methods": {},
				"version": 1
			},
			"evm": {
				"assembly": "    /* \"perpus.sol\":66:859  contract Perpus {... */\n  mstore(0x40, 0x80)\n  callvalue\n  dup1\n  iszero\n  tag_1\n  jumpi\n  0x00\n  dup1\n  revert\ntag_1:\n  pop\n  dataSize(sub_0)\n  dup1\n  dataOffset(sub_0)\n  0x00\n  codecopy\n  0x00\n  return\nstop\n\nsub_0: assembly {\n        /* \"perpus.sol\":66:859  contract Perpus {... */\n      mstore(0x40, 0x80)\n      callvalue\n      dup1\n      iszero\n      tag_1\n      jumpi\n      0x00\n      dup1\n      revert\n    tag_1:\n      pop\n      jumpi(tag_2, lt(calldatasize, 0x04))\n      shr(0xe0, calldataload(0x00))\n      dup1\n      0x2e28a7ca\n      eq\n      tag_3\n      jumpi\n      dup1\n      0x3088c00f\n      eq\n      tag_4\n      jumpi\n      dup1\n      0x4a123e09\n      eq\n      tag_5\n      jumpi\n    tag_2:\n      0x00\n      dup1\n      revert\n        /* \"perpus.sol\":692:820  function hapusBuku(uint _isbn) public {... */\n    tag_3:\n      tag_6\n      0x04\n      dup1\n      calldatasize\n      sub\n      dup2\n      add\n      swap1\n      tag_7\n      swap2\n      swap1\n      tag_8\n      jump\t// in\n    tag_7:\n      tag_9\n      jump\t// in\n    tag_6:\n      stop\n        /* \"perpus.sol\":89:135  mapping(uint => BookDetail) public listOfBooks */\n    tag_4:\n      tag_10\n      0x04\n      dup1\n      calldatasize\n      sub\n      dup2\n      add\n      swap1\n      tag_11\n      swap2\n      swap1\n      tag_8\n      jump\t// in\n    tag_11:\n      tag_12\n      jump\t// in\n    tag_10:\n      mload(0x40)\n      tag_13\n      swap6\n      swap5\n      swap4\n      swap3\n      swap2\n      swap1\n      tag_14\n      jump\t// in\n    tag_13:\n      mload(0x40)\n      dup1\n      swap2\n      sub\n      swap1\n      return\n        /* \"perpus.sol\":358:665  function tambahBuku(... */\n    tag_5:\n      tag_15\n      0x04\n      dup1\n      calldatasize\n      sub\n      dup2\n      add\n      swap1\n      tag_16\n      swap2\n      swap1\n      tag_17\n      jump\t// in\n    tag_16:\n      tag_18\n      jump\t// in\n    tag_15:\n      stop\n        /* \"perpus.sol\":692:820  function hapusBuku(uint _isbn) public {... */\n    tag_9:\n        /* \"perpus.sol\":762:812  BookDetail(0,string(\"\"), 0, string(\"\"),address(0)) */\n      mload(0x40)\n      dup1\n      0xa0\n      add\n      0x40\n      mstore\n      dup1\n        /* \"perpus.sol\":773:774  0 */\n      0x00\n        /* \"perpus.sol\":762:812  BookDetail(0,string(\"\"), 0, string(\"\"),address(0)) */\n      dup2\n      mstore\n      0x20\n      add\n        /* \"perpus.sol\":775:785  string(\"\") */\n      mload(0x40)\n      dup1\n      0x20\n      add\n      0x40\n      mstore\n      dup1\n      0x00\n      dup2\n      mstore\n      pop\n        /* \"perpus.sol\":762:812  BookDetail(0,string(\"\"), 0, string(\"\"),address(0)) */\n      dup2\n      mstore\n      0x20\n      add\n        /* \"perpus.sol\":787:788  0 */\n      0x00\n        /* \"perpus.sol\":762:812  BookDetail(0,string(\"\"), 0, string(\"\"),address(0)) */\n      dup2\n      mstore\n      0x20\n      add\n        /* \"perpus.sol\":790:800  string(\"\") */\n      mload(0x40)\n      dup1\n      0x20\n      add\n      0x40\n      mstore\n      dup1\n      0x00\n      dup2\n      mstore\n      pop\n        /* \"perpus.sol\":762:812  BookDetail(0,string(\"\"), 0, string(\"\"),address(0)) */\n      dup2\n      mstore\n      0x20\n      add\n        /* \"perpus.sol\":809:810  0 */\n      0x00\n        /* \"perpus.sol\":762:812  BookDetail(0,string(\"\"), 0, string(\"\"),address(0)) */\n      0xffffffffffffffffffffffffffffffffffffffff\n      and\n      dup2\n      mstore\n      pop\n        /* \"perpus.sol\":741:752  listOfBooks */\n      0x00\n        /* \"perpus.sol\":741:759  listOfBooks[_isbn] */\n      dup1\n        /* \"perpus.sol\":753:758  _isbn */\n      dup4\n        /* \"perpus.sol\":741:759  listOfBooks[_isbn] */\n      dup2\n      mstore\n      0x20\n      add\n      swap1\n      dup2\n      mstore\n      0x20\n      add\n      0x00\n      keccak256\n        /* \"perpus.sol\":741:812  listOfBooks[_isbn] = BookDetail(0,string(\"\"), 0, string(\"\"),address(0)) */\n      0x00\n      dup3\n      add\n      mload\n      dup2\n      0x00\n      add\n      sstore\n      0x20\n      dup3\n      add\n      mload\n      dup2\n      0x01\n      add\n      swap1\n      dup2\n      tag_20\n      swap2\n      swap1\n      tag_21\n      jump\t// in\n    tag_20:\n      pop\n      0x40\n      dup3\n      add\n      mload\n      dup2\n      0x02\n      add\n      sstore\n      0x60\n      dup3\n      add\n      mload\n      dup2\n      0x03\n      add\n      swap1\n      dup2\n      tag_22\n      swap2\n      swap1\n      tag_21\n      jump\t// in\n    tag_22:\n      pop\n      0x80\n      dup3\n      add\n      mload\n      dup2\n      0x04\n      add\n      exp(0x0100, 0x00)\n      dup2\n      sload\n      dup2\n      0xffffffffffffffffffffffffffffffffffffffff\n      mul\n      not\n      and\n      swap1\n      dup4\n      0xffffffffffffffffffffffffffffffffffffffff\n      and\n      mul\n      or\n      swap1\n      sstore\n      pop\n      swap1\n      pop\n      pop\n        /* \"perpus.sol\":692:820  function hapusBuku(uint _isbn) public {... */\n      pop\n      jump\t// out\n        /* \"perpus.sol\":89:135  mapping(uint => BookDetail) public listOfBooks */\n    tag_12:\n      mstore(0x20, 0x00)\n      dup1\n      0x00\n      mstore\n      keccak256(0x00, 0x40)\n      0x00\n      swap2\n      pop\n      swap1\n      pop\n      dup1\n      0x00\n      add\n      sload\n      swap1\n      dup1\n      0x01\n      add\n      dup1\n      sload\n      tag_23\n      swap1\n      tag_24\n      jump\t// in\n    tag_23:\n      dup1\n      0x1f\n      add\n      0x20\n      dup1\n      swap2\n      div\n      mul\n      0x20\n      add\n      mload(0x40)\n      swap1\n      dup2\n      add\n      0x40\n      mstore\n      dup1\n      swap3\n      swap2\n      swap1\n      dup2\n      dup2\n      mstore\n      0x20\n      add\n      dup3\n      dup1\n      sload\n      tag_25\n      swap1\n      tag_24\n      jump\t// in\n    tag_25:\n      dup1\n      iszero\n      tag_26\n      jumpi\n      dup1\n      0x1f\n      lt\n      tag_27\n      jumpi\n      0x0100\n      dup1\n      dup4\n      sload\n      div\n      mul\n      dup4\n      mstore\n      swap2\n      0x20\n      add\n      swap2\n      jump(tag_26)\n    tag_27:\n      dup3\n      add\n      swap2\n      swap1\n      0x00\n      mstore\n      keccak256(0x00, 0x20)\n      swap1\n    tag_28:\n      dup2\n      sload\n      dup2\n      mstore\n      swap1\n      0x01\n      add\n      swap1\n      0x20\n      add\n      dup1\n      dup4\n      gt\n      tag_28\n      jumpi\n      dup3\n      swap1\n      sub\n      0x1f\n      and\n      dup3\n      add\n      swap2\n    tag_26:\n      pop\n      pop\n      pop\n      pop\n      pop\n      swap1\n      dup1\n      0x02\n      add\n      sload\n      swap1\n      dup1\n      0x03\n      add\n      dup1\n      sload\n      tag_29\n      swap1\n      tag_24\n      jump\t// in\n    tag_29:\n      dup1\n      0x1f\n      add\n      0x20\n      dup1\n      swap2\n      div\n      mul\n      0x20\n      add\n      mload(0x40)\n      swap1\n      dup2\n      add\n      0x40\n      mstore\n      dup1\n      swap3\n      swap2\n      swap1\n      dup2\n      dup2\n      mstore\n      0x20\n      add\n      dup3\n      dup1\n      sload\n      tag_30\n      swap1\n      tag_24\n      jump\t// in\n    tag_30:\n      dup1\n      iszero\n      tag_31\n      jumpi\n      dup1\n      0x1f\n      lt\n      tag_32\n      jumpi\n      0x0100\n      dup1\n      dup4\n      sload\n      div\n      mul\n      dup4\n      mstore\n      swap2\n      0x20\n      add\n      swap2\n      jump(tag_31)\n    tag_32:\n      dup3\n      add\n      swap2\n      swap1\n      0x00\n      mstore\n      keccak256(0x00, 0x20)\n      swap1\n    tag_33:\n      dup2\n      sload\n      dup2\n      mstore\n      swap1\n      0x01\n      add\n      swap1\n      0x20\n      add\n      dup1\n      dup4\n      gt\n      tag_33\n      jumpi\n      dup3\n      swap1\n      sub\n      0x1f\n      and\n      dup3\n      add\n      swap2\n    tag_31:\n      pop\n      pop\n      pop\n      pop\n      pop\n      swap1\n      dup1\n      0x04\n      add\n      0x00\n      swap1\n      sload\n      swap1\n      0x0100\n      exp\n      swap1\n      div\n      0xffffffffffffffffffffffffffffffffffffffff\n      and\n      swap1\n      pop\n      dup6\n      jump\t// out\n        /* \"perpus.sol\":358:665  function tambahBuku(... */\n    tag_18:\n        /* \"perpus.sol\":584:657  BookDetail(_isbn, _tittle, _yearBookCreated, _writerName, _writerAddress) */\n      mload(0x40)\n      dup1\n      0xa0\n      add\n      0x40\n      mstore\n      dup1\n        /* \"perpus.sol\":595:600  _isbn */\n      dup7\n        /* \"perpus.sol\":584:657  BookDetail(_isbn, _tittle, _yearBookCreated, _writerName, _writerAddress) */\n      dup2\n      mstore\n      0x20\n      add\n        /* \"perpus.sol\":602:609  _tittle */\n      dup6\n        /* \"perpus.sol\":584:657  BookDetail(_isbn, _tittle, _yearBookCreated, _writerName, _writerAddress) */\n      dup2\n      mstore\n      0x20\n      add\n        /* \"perpus.sol\":611:627  _yearBookCreated */\n      dup5\n        /* \"perpus.sol\":584:657  BookDetail(_isbn, _tittle, _yearBookCreated, _writerName, _writerAddress) */\n      dup2\n      mstore\n      0x20\n      add\n        /* \"perpus.sol\":629:640  _writerName */\n      dup4\n        /* \"perpus.sol\":584:657  BookDetail(_isbn, _tittle, _yearBookCreated, _writerName, _writerAddress) */\n      dup2\n      mstore\n      0x20\n      add\n        /* \"perpus.sol\":642:656  _writerAddress */\n      dup3\n        /* \"perpus.sol\":584:657  BookDetail(_isbn, _tittle, _yearBookCreated, _writerName, _writerAddress) */\n      0xffffffffffffffffffffffffffffffffffffffff\n      and\n      dup2\n      mstore\n      pop\n        /* \"perpus.sol\":563:574  listOfBooks */\n      0x00\n        /* \"perpus.sol\":563:581  listOfBooks[_isbn] */\n      dup1\n        /* \"perpus.sol\":575:580  _isbn */\n      dup8\n        /* \"perpus.sol\":563:581  listOfBooks[_isbn] */\n      dup2\n      mstore\n      0x20\n      add\n      swap1\n      dup2\n      mstore\n      0x20\n      add\n      0x00\n      keccak256\n        /* \"perpus.sol\":563:657  listOfBooks[_isbn] = BookDetail(_isbn, _tittle, _yearBookCreated, _writerName, _writerAddress) */\n      0x00\n      dup3\n      add\n      mload\n      dup2\n      0x00\n      add\n      sstore\n      0x20\n      dup3\n      add\n      mload\n      dup2\n      0x01\n      add\n      swap1\n      dup2\n      tag_35\n      swap2\n      swap1\n      tag_21\n      jump\t// in\n    tag_35:\n      pop\n      0x40\n      dup3\n      add\n      mload\n      dup2\n      0x02\n      add\n      sstore\n      0x60\n      dup3\n      add\n      mload\n      dup2\n      0x03\n      add\n      swap1\n      dup2\n      tag_36\n      swap2\n      swap1\n      tag_21\n      jump\t// in\n    tag_36:\n      pop\n      0x80\n      dup3\n      add\n      mload\n      dup2\n      0x04\n      add\n      exp(0x0100, 0x00)\n      dup2\n      sload\n      dup2\n      0xffffffffffffffffffffffffffffffffffffffff\n      mul\n      not\n      and\n      swap1\n      dup4\n      0xffffffffffffffffffffffffffffffffffffffff\n      and\n      mul\n      or\n      swap1\n      sstore\n      pop\n      swap1\n      pop\n      pop\n        /* \"perpus.sol\":358:665  function tambahBuku(... */\n      pop\n      pop\n      pop\n      pop\n      pop\n      jump\t// out\n        /* \"#utility.yul\":7:82   */\n    tag_37:\n        /* \"#utility.yul\":40:46   */\n      0x00\n        /* \"#utility.yul\":73:75   */\n      0x40\n        /* \"#utility.yul\":67:76   */\n      mload\n        /* \"#utility.yul\":57:76   */\n      swap1\n      pop\n        /* \"#utility.yul\":7:82   */\n      swap1\n      jump\t// out\n        /* \"#utility.yul\":88:205   */\n    tag_38:\n        /* \"#utility.yul\":197:198   */\n      0x00\n        /* \"#utility.yul\":194:195   */\n      dup1\n        /* \"#utility.yul\":187:199   */\n      revert\n        /* \"#utility.yul\":211:328   */\n    tag_39:\n        /* \"#utility.yul\":320:321   */\n      0x00\n        /* \"#utility.yul\":317:318   */\n      dup1\n        /* \"#utility.yul\":310:322   */\n      revert\n        /* \"#utility.yul\":334:411   */\n    tag_40:\n        /* \"#utility.yul\":371:378   */\n      0x00\n        /* \"#utility.yul\":400:405   */\n      dup2\n        /* \"#utility.yul\":389:405   */\n      swap1\n      pop\n        /* \"#utility.yul\":334:411   */\n      swap2\n      swap1\n      pop\n      jump\t// out\n        /* \"#utility.yul\":417:539   */\n    tag_41:\n        /* \"#utility.yul\":490:514   */\n      tag_85\n        /* \"#utility.yul\":508:513   */\n      dup2\n        /* \"#utility.yul\":490:514   */\n      tag_40\n      jump\t// in\n    tag_85:\n        /* \"#utility.yul\":483:488   */\n      dup2\n        /* \"#utility.yul\":480:515   */\n      eq\n        /* \"#utility.yul\":470:533   */\n      tag_86\n      jumpi\n        /* \"#utility.yul\":529:530   */\n      0x00\n        /* \"#utility.yul\":526:527   */\n      dup1\n        /* \"#utility.yul\":519:531   */\n      revert\n        /* \"#utility.yul\":470:533   */\n    tag_86:\n        /* \"#utility.yul\":417:539   */\n      pop\n      jump\t// out\n        /* \"#utility.yul\":545:684   */\n    tag_42:\n        /* \"#utility.yul\":591:596   */\n      0x00\n        /* \"#utility.yul\":629:635   */\n      dup2\n        /* \"#utility.yul\":616:636   */\n      calldataload\n        /* \"#utility.yul\":607:636   */\n      swap1\n      pop\n        /* \"#utility.yul\":645:678   */\n      tag_88\n        /* \"#utility.yul\":672:677   */\n      dup2\n        /* \"#utility.yul\":645:678   */\n      tag_41\n      jump\t// in\n    tag_88:\n        /* \"#utility.yul\":545:684   */\n      swap3\n      swap2\n      pop\n      pop\n      jump\t// out\n        /* \"#utility.yul\":690:1019   */\n    tag_8:\n        /* \"#utility.yul\":749:755   */\n      0x00\n        /* \"#utility.yul\":798:800   */\n      0x20\n        /* \"#utility.yul\":786:795   */\n      dup3\n        /* \"#utility.yul\":777:784   */\n      dup5\n        /* \"#utility.yul\":773:796   */\n      sub\n        /* \"#utility.yul\":769:801   */\n      slt\n        /* \"#utility.yul\":766:885   */\n      iszero\n      tag_90\n      jumpi\n        /* \"#utility.yul\":804:883   */\n      tag_91\n      tag_38\n      jump\t// in\n    tag_91:\n        /* \"#utility.yul\":766:885   */\n    tag_90:\n        /* \"#utility.yul\":924:925   */\n      0x00\n        /* \"#utility.yul\":949:1002   */\n      tag_92\n        /* \"#utility.yul\":994:1001   */\n      dup5\n        /* \"#utility.yul\":985:991   */\n      dup3\n        /* \"#utility.yul\":974:983   */\n      dup6\n        /* \"#utility.yul\":970:992   */\n      add\n        /* \"#utility.yul\":949:1002   */\n      tag_42\n      jump\t// in\n    tag_92:\n        /* \"#utility.yul\":939:1002   */\n      swap2\n      pop\n        /* \"#utility.yul\":895:1012   */\n      pop\n        /* \"#utility.yul\":690:1019   */\n      swap3\n      swap2\n      pop\n      pop\n      jump\t// out\n        /* \"#utility.yul\":1025:1143   */\n    tag_43:\n        /* \"#utility.yul\":1112:1136   */\n      tag_94\n        /* \"#utility.yul\":1130:1135   */\n      dup2\n        /* \"#utility.yul\":1112:1136   */\n      tag_40\n      jump\t// in\n    tag_94:\n        /* \"#utility.yul\":1107:1110   */\n      dup3\n        /* \"#utility.yul\":1100:1137   */\n      mstore\n        /* \"#utility.yul\":1025:1143   */\n      pop\n      pop\n      jump\t// out\n        /* \"#utility.yul\":1149:1248   */\n    tag_44:\n        /* \"#utility.yul\":1201:1207   */\n      0x00\n        /* \"#utility.yul\":1235:1240   */\n      dup2\n        /* \"#utility.yul\":1229:1241   */\n      mload\n        /* \"#utility.yul\":1219:1241   */\n      swap1\n      pop\n        /* \"#utility.yul\":1149:1248   */\n      swap2\n      swap1\n      pop\n      jump\t// out\n        /* \"#utility.yul\":1254:1423   */\n    tag_45:\n        /* \"#utility.yul\":1338:1349   */\n      0x00\n        /* \"#utility.yul\":1372:1378   */\n      dup3\n        /* \"#utility.yul\":1367:1370   */\n      dup3\n        /* \"#utility.yul\":1360:1379   */\n      mstore\n        /* \"#utility.yul\":1412:1416   */\n      0x20\n        /* \"#utility.yul\":1407:1410   */\n      dup3\n        /* \"#utility.yul\":1403:1417   */\n      add\n        /* \"#utility.yul\":1388:1417   */\n      swap1\n      pop\n        /* \"#utility.yul\":1254:1423   */\n      swap3\n      swap2\n      pop\n      pop\n      jump\t// out\n        /* \"#utility.yul\":1429:1675   */\n    tag_46:\n        /* \"#utility.yul\":1510:1511   */\n      0x00\n        /* \"#utility.yul\":1520:1633   */\n    tag_98:\n        /* \"#utility.yul\":1534:1540   */\n      dup4\n        /* \"#utility.yul\":1531:1532   */\n      dup2\n        /* \"#utility.yul\":1528:1541   */\n      lt\n        /* \"#utility.yul\":1520:1633   */\n      iszero\n      tag_100\n      jumpi\n        /* \"#utility.yul\":1619:1620   */\n      dup1\n        /* \"#utility.yul\":1614:1617   */\n      dup3\n        /* \"#utility.yul\":1610:1621   */\n      add\n        /* \"#utility.yul\":1604:1622   */\n      mload\n        /* \"#utility.yul\":1600:1601   */\n      dup2\n        /* \"#utility.yul\":1595:1598   */\n      dup5\n        /* \"#utility.yul\":1591:1602   */\n      add\n        /* \"#utility.yul\":1584:1623   */\n      mstore\n        /* \"#utility.yul\":1556:1558   */\n      0x20\n        /* \"#utility.yul\":1553:1554   */\n      dup2\n        /* \"#utility.yul\":1549:1559   */\n      add\n        /* \"#utility.yul\":1544:1559   */\n      swap1\n      pop\n        /* \"#utility.yul\":1520:1633   */\n      jump(tag_98)\n    tag_100:\n        /* \"#utility.yul\":1667:1668   */\n      0x00\n        /* \"#utility.yul\":1658:1664   */\n      dup5\n        /* \"#utility.yul\":1653:1656   */\n      dup5\n        /* \"#utility.yul\":1649:1665   */\n      add\n        /* \"#utility.yul\":1642:1669   */\n      mstore\n        /* \"#utility.yul\":1491:1675   */\n      pop\n        /* \"#utility.yul\":1429:1675   */\n      pop\n      pop\n      pop\n      jump\t// out\n        /* \"#utility.yul\":1681:1783   */\n    tag_47:\n        /* \"#utility.yul\":1722:1728   */\n      0x00\n        /* \"#utility.yul\":1773:1775   */\n      0x1f\n        /* \"#utility.yul\":1769:1776   */\n      not\n        /* \"#utility.yul\":1764:1766   */\n      0x1f\n        /* \"#utility.yul\":1757:1762   */\n      dup4\n        /* \"#utility.yul\":1753:1767   */\n      add\n        /* \"#utility.yul\":1749:1777   */\n      and\n        /* \"#utility.yul\":1739:1777   */\n      swap1\n      pop\n        /* \"#utility.yul\":1681:1783   */\n      swap2\n      swap1\n      pop\n      jump\t// out\n        /* \"#utility.yul\":1789:2166   */\n    tag_48:\n        /* \"#utility.yul\":1877:1880   */\n      0x00\n        /* \"#utility.yul\":1905:1944   */\n      tag_103\n        /* \"#utility.yul\":1938:1943   */\n      dup3\n        /* \"#utility.yul\":1905:1944   */\n      tag_44\n      jump\t// in\n    tag_103:\n        /* \"#utility.yul\":1960:2031   */\n      tag_104\n        /* \"#utility.yul\":2024:2030   */\n      dup2\n        /* \"#utility.yul\":2019:2022   */\n      dup6\n        /* \"#utility.yul\":1960:2031   */\n      tag_45\n      jump\t// in\n    tag_104:\n        /* \"#utility.yul\":1953:2031   */\n      swap4\n      pop\n        /* \"#utility.yul\":2040:2105   */\n      tag_105\n        /* \"#utility.yul\":2098:2104   */\n      dup2\n        /* \"#utility.yul\":2093:2096   */\n      dup6\n        /* \"#utility.yul\":2086:2090   */\n      0x20\n        /* \"#utility.yul\":2079:2084   */\n      dup7\n        /* \"#utility.yul\":2075:2091   */\n      add\n        /* \"#utility.yul\":2040:2105   */\n      tag_46\n      jump\t// in\n    tag_105:\n        /* \"#utility.yul\":2130:2159   */\n      tag_106\n        /* \"#utility.yul\":2152:2158   */\n      dup2\n        /* \"#utility.yul\":2130:2159   */\n      tag_47\n      jump\t// in\n    tag_106:\n        /* \"#utility.yul\":2125:2128   */\n      dup5\n        /* \"#utility.yul\":2121:2160   */\n      add\n        /* \"#utility.yul\":2114:2160   */\n      swap2\n      pop\n        /* \"#utility.yul\":1881:2166   */\n      pop\n        /* \"#utility.yul\":1789:2166   */\n      swap3\n      swap2\n      pop\n      pop\n      jump\t// out\n        /* \"#utility.yul\":2172:2298   */\n    tag_49:\n        /* \"#utility.yul\":2209:2216   */\n      0x00\n        /* \"#utility.yul\":2249:2291   */\n      0xffffffffffffffffffffffffffffffffffffffff\n        /* \"#utility.yul\":2242:2247   */\n      dup3\n        /* \"#utility.yul\":2238:2292   */\n      and\n        /* \"#utility.yul\":2227:2292   */\n      swap1\n      pop\n        /* \"#utility.yul\":2172:2298   */\n      swap2\n      swap1\n      pop\n      jump\t// out\n        /* \"#utility.yul\":2304:2400   */\n    tag_50:\n        /* \"#utility.yul\":2341:2348   */\n      0x00\n        /* \"#utility.yul\":2370:2394   */\n      tag_109\n        /* \"#utility.yul\":2388:2393   */\n      dup3\n        /* \"#utility.yul\":2370:2394   */\n      tag_49\n      jump\t// in\n    tag_109:\n        /* \"#utility.yul\":2359:2394   */\n      swap1\n      pop\n        /* \"#utility.yul\":2304:2400   */\n      swap2\n      swap1\n      pop\n      jump\t// out\n        /* \"#utility.yul\":2406:2524   */\n    tag_51:\n        /* \"#utility.yul\":2493:2517   */\n      tag_111\n        /* \"#utility.yul\":2511:2516   */\n      dup2\n        /* \"#utility.yul\":2493:2517   */\n      tag_50\n      jump\t// in\n    tag_111:\n        /* \"#utility.yul\":2488:2491   */\n      dup3\n        /* \"#utility.yul\":2481:2518   */\n      mstore\n        /* \"#utility.yul\":2406:2524   */\n      pop\n      pop\n      jump\t// out\n        /* \"#utility.yul\":2530:3376   */\n    tag_14:\n        /* \"#utility.yul\":2775:2779   */\n      0x00\n        /* \"#utility.yul\":2813:2816   */\n      0xa0\n        /* \"#utility.yul\":2802:2811   */\n      dup3\n        /* \"#utility.yul\":2798:2817   */\n      add\n        /* \"#utility.yul\":2790:2817   */\n      swap1\n      pop\n        /* \"#utility.yul\":2827:2898   */\n      tag_113\n        /* \"#utility.yul\":2895:2896   */\n      0x00\n        /* \"#utility.yul\":2884:2893   */\n      dup4\n        /* \"#utility.yul\":2880:2897   */\n      add\n        /* \"#utility.yul\":2871:2877   */\n      dup9\n        /* \"#utility.yul\":2827:2898   */\n      tag_43\n      jump\t// in\n    tag_113:\n        /* \"#utility.yul\":2945:2954   */\n      dup2\n        /* \"#utility.yul\":2939:2943   */\n      dup2\n        /* \"#utility.yul\":2935:2955   */\n      sub\n        /* \"#utility.yul\":2930:2932   */\n      0x20\n        /* \"#utility.yul\":2919:2928   */\n      dup4\n        /* \"#utility.yul\":2915:2933   */\n      add\n        /* \"#utility.yul\":2908:2956   */\n      mstore\n        /* \"#utility.yul\":2973:3051   */\n      tag_114\n        /* \"#utility.yul\":3046:3050   */\n      dup2\n        /* \"#utility.yul\":3037:3043   */\n      dup8\n        /* \"#utility.yul\":2973:3051   */\n      tag_48\n      jump\t// in\n    tag_114:\n        /* \"#utility.yul\":2965:3051   */\n      swap1\n      pop\n        /* \"#utility.yul\":3061:3133   */\n      tag_115\n        /* \"#utility.yul\":3129:3131   */\n      0x40\n        /* \"#utility.yul\":3118:3127   */\n      dup4\n        /* \"#utility.yul\":3114:3132   */\n      add\n        /* \"#utility.yul\":3105:3111   */\n      dup7\n        /* \"#utility.yul\":3061:3133   */\n      tag_43\n      jump\t// in\n    tag_115:\n        /* \"#utility.yul\":3180:3189   */\n      dup2\n        /* \"#utility.yul\":3174:3178   */\n      dup2\n        /* \"#utility.yul\":3170:3190   */\n      sub\n        /* \"#utility.yul\":3165:3167   */\n      0x60\n        /* \"#utility.yul\":3154:3163   */\n      dup4\n        /* \"#utility.yul\":3150:3168   */\n      add\n        /* \"#utility.yul\":3143:3191   */\n      mstore\n        /* \"#utility.yul\":3208:3286   */\n      tag_116\n        /* \"#utility.yul\":3281:3285   */\n      dup2\n        /* \"#utility.yul\":3272:3278   */\n      dup6\n        /* \"#utility.yul\":3208:3286   */\n      tag_48\n      jump\t// in\n    tag_116:\n        /* \"#utility.yul\":3200:3286   */\n      swap1\n      pop\n        /* \"#utility.yul\":3296:3369   */\n      tag_117\n        /* \"#utility.yul\":3364:3367   */\n      0x80\n        /* \"#utility.yul\":3353:3362   */\n      dup4\n        /* \"#utility.yul\":3349:3368   */\n      add\n        /* \"#utility.yul\":3340:3346   */\n      dup5\n        /* \"#utility.yul\":3296:3369   */\n      tag_51\n      jump\t// in\n    tag_117:\n        /* \"#utility.yul\":2530:3376   */\n      swap7\n      swap6\n      pop\n      pop\n      pop\n      pop\n      pop\n      pop\n      jump\t// out\n        /* \"#utility.yul\":3382:3499   */\n    tag_52:\n        /* \"#utility.yul\":3491:3492   */\n      0x00\n        /* \"#utility.yul\":3488:3489   */\n      dup1\n        /* \"#utility.yul\":3481:3493   */\n      revert\n        /* \"#utility.yul\":3505:3622   */\n    tag_53:\n        /* \"#utility.yul\":3614:3615   */\n      0x00\n        /* \"#utility.yul\":3611:3612   */\n      dup1\n        /* \"#utility.yul\":3604:3616   */\n      revert\n        /* \"#utility.yul\":3628:3808   */\n    tag_54:\n        /* \"#utility.yul\":3676:3753   */\n      0x4e487b7100000000000000000000000000000000000000000000000000000000\n        /* \"#utility.yul\":3673:3674   */\n      0x00\n        /* \"#utility.yul\":3666:3754   */\n      mstore\n        /* \"#utility.yul\":3773:3777   */\n      0x41\n        /* \"#utility.yul\":3770:3771   */\n      0x04\n        /* \"#utility.yul\":3763:3778   */\n      mstore\n        /* \"#utility.yul\":3797:3801   */\n      0x24\n        /* \"#utility.yul\":3794:3795   */\n      0x00\n        /* \"#utility.yul\":3787:3802   */\n      revert\n        /* \"#utility.yul\":3814:4095   */\n    tag_55:\n        /* \"#utility.yul\":3897:3924   */\n      tag_122\n        /* \"#utility.yul\":3919:3923   */\n      dup3\n        /* \"#utility.yul\":3897:3924   */\n      tag_47\n      jump\t// in\n    tag_122:\n        /* \"#utility.yul\":3889:3895   */\n      dup2\n        /* \"#utility.yul\":3885:3925   */\n      add\n        /* \"#utility.yul\":4027:4033   */\n      dup2\n        /* \"#utility.yul\":4015:4025   */\n      dup2\n        /* \"#utility.yul\":4012:4034   */\n      lt\n        /* \"#utility.yul\":3991:4009   */\n      0xffffffffffffffff\n        /* \"#utility.yul\":3979:3989   */\n      dup3\n        /* \"#utility.yul\":3976:4010   */\n      gt\n        /* \"#utility.yul\":3973:4035   */\n      or\n        /* \"#utility.yul\":3970:4058   */\n      iszero\n      tag_123\n      jumpi\n        /* \"#utility.yul\":4038:4056   */\n      tag_124\n      tag_54\n      jump\t// in\n    tag_124:\n        /* \"#utility.yul\":3970:4058   */\n    tag_123:\n        /* \"#utility.yul\":4078:4088   */\n      dup1\n        /* \"#utility.yul\":4074:4076   */\n      0x40\n        /* \"#utility.yul\":4067:4089   */\n      mstore\n        /* \"#utility.yul\":3857:4095   */\n      pop\n        /* \"#utility.yul\":3814:4095   */\n      pop\n      pop\n      jump\t// out\n        /* \"#utility.yul\":4101:4230   */\n    tag_56:\n        /* \"#utility.yul\":4135:4141   */\n      0x00\n        /* \"#utility.yul\":4162:4182   */\n      tag_126\n      tag_37\n      jump\t// in\n    tag_126:\n        /* \"#utility.yul\":4152:4182   */\n      swap1\n      pop\n        /* \"#utility.yul\":4191:4224   */\n      tag_127\n        /* \"#utility.yul\":4219:4223   */\n      dup3\n        /* \"#utility.yul\":4211:4217   */\n      dup3\n        /* \"#utility.yul\":4191:4224   */\n      tag_55\n      jump\t// in\n    tag_127:\n        /* \"#utility.yul\":4101:4230   */\n      swap2\n      swap1\n      pop\n      jump\t// out\n        /* \"#utility.yul\":4236:4544   */\n    tag_57:\n        /* \"#utility.yul\":4298:4302   */\n      0x00\n        /* \"#utility.yul\":4388:4406   */\n      0xffffffffffffffff\n        /* \"#utility.yul\":4380:4386   */\n      dup3\n        /* \"#utility.yul\":4377:4407   */\n      gt\n        /* \"#utility.yul\":4374:4430   */\n      iszero\n      tag_129\n      jumpi\n        /* \"#utility.yul\":4410:4428   */\n      tag_130\n      tag_54\n      jump\t// in\n    tag_130:\n        /* \"#utility.yul\":4374:4430   */\n    tag_129:\n        /* \"#utility.yul\":4448:4477   */\n      tag_131\n        /* \"#utility.yul\":4470:4476   */\n      dup3\n        /* \"#utility.yul\":4448:4477   */\n      tag_47\n      jump\t// in\n    tag_131:\n        /* \"#utility.yul\":4440:4477   */\n      swap1\n      pop\n        /* \"#utility.yul\":4532:4536   */\n      0x20\n        /* \"#utility.yul\":4526:4530   */\n      dup2\n        /* \"#utility.yul\":4522:4537   */\n      add\n        /* \"#utility.yul\":4514:4537   */\n      swap1\n      pop\n        /* \"#utility.yul\":4236:4544   */\n      swap2\n      swap1\n      pop\n      jump\t// out\n        /* \"#utility.yul\":4550:4696   */\n    tag_58:\n        /* \"#utility.yul\":4647:4653   */\n      dup3\n        /* \"#utility.yul\":4642:4645   */\n      dup2\n        /* \"#utility.yul\":4637:4640   */\n      dup4\n        /* \"#utility.yul\":4624:4654   */\n      calldatacopy\n        /* \"#utility.yul\":4688:4689   */\n      0x00\n        /* \"#utility.yul\":4679:4685   */\n      dup4\n        /* \"#utility.yul\":4674:4677   */\n      dup4\n        /* \"#utility.yul\":4670:4686   */\n      add\n        /* \"#utility.yul\":4663:4690   */\n      mstore\n        /* \"#utility.yul\":4550:4696   */\n      pop\n      pop\n      pop\n      jump\t// out\n        /* \"#utility.yul\":4702:5127   */\n    tag_59:\n        /* \"#utility.yul\":4780:4785   */\n      0x00\n        /* \"#utility.yul\":4805:4871   */\n      tag_134\n        /* \"#utility.yul\":4821:4870   */\n      tag_135\n        /* \"#utility.yul\":4863:4869   */\n      dup5\n        /* \"#utility.yul\":4821:4870   */\n      tag_57\n      jump\t// in\n    tag_135:\n        /* \"#utility.yul\":4805:4871   */\n      tag_56\n      jump\t// in\n    tag_134:\n        /* \"#utility.yul\":4796:4871   */\n      swap1\n      pop\n        /* \"#utility.yul\":4894:4900   */\n      dup3\n        /* \"#utility.yul\":4887:4892   */\n      dup2\n        /* \"#utility.yul\":4880:4901   */\n      mstore\n        /* \"#utility.yul\":4932:4936   */\n      0x20\n        /* \"#utility.yul\":4925:4930   */\n      dup2\n        /* \"#utility.yul\":4921:4937   */\n      add\n        /* \"#utility.yul\":4970:4973   */\n      dup5\n        /* \"#utility.yul\":4961:4967   */\n      dup5\n        /* \"#utility.yul\":4956:4959   */\n      dup5\n        /* \"#utility.yul\":4952:4968   */\n      add\n        /* \"#utility.yul\":4949:4974   */\n      gt\n        /* \"#utility.yul\":4946:5058   */\n      iszero\n      tag_136\n      jumpi\n        /* \"#utility.yul\":4977:5056   */\n      tag_137\n      tag_53\n      jump\t// in\n    tag_137:\n        /* \"#utility.yul\":4946:5058   */\n    tag_136:\n        /* \"#utility.yul\":5067:5121   */\n      tag_138\n        /* \"#utility.yul\":5114:5120   */\n      dup5\n        /* \"#utility.yul\":5109:5112   */\n      dup3\n        /* \"#utility.yul\":5104:5107   */\n      dup6\n        /* \"#utility.yul\":5067:5121   */\n      tag_58\n      jump\t// in\n    tag_138:\n        /* \"#utility.yul\":4786:5127   */\n      pop\n        /* \"#utility.yul\":4702:5127   */\n      swap4\n      swap3\n      pop\n      pop\n      pop\n      jump\t// out\n        /* \"#utility.yul\":5147:5487   */\n    tag_60:\n        /* \"#utility.yul\":5203:5208   */\n      0x00\n        /* \"#utility.yul\":5252:5255   */\n      dup3\n        /* \"#utility.yul\":5245:5249   */\n      0x1f\n        /* \"#utility.yul\":5237:5243   */\n      dup4\n        /* \"#utility.yul\":5233:5250   */\n      add\n        /* \"#utility.yul\":5229:5256   */\n      slt\n        /* \"#utility.yul\":5219:5341   */\n      tag_140\n      jumpi\n        /* \"#utility.yul\":5260:5339   */\n      tag_141\n      tag_52\n      jump\t// in\n    tag_141:\n        /* \"#utility.yul\":5219:5341   */\n    tag_140:\n        /* \"#utility.yul\":5377:5383   */\n      dup2\n        /* \"#utility.yul\":5364:5384   */\n      calldataload\n        /* \"#utility.yul\":5402:5481   */\n      tag_142\n        /* \"#utility.yul\":5477:5480   */\n      dup5\n        /* \"#utility.yul\":5469:5475   */\n      dup3\n        /* \"#utility.yul\":5462:5466   */\n      0x20\n        /* \"#utility.yul\":5454:5460   */\n      dup7\n        /* \"#utility.yul\":5450:5467   */\n      add\n        /* \"#utility.yul\":5402:5481   */\n      tag_59\n      jump\t// in\n    tag_142:\n        /* \"#utility.yul\":5393:5481   */\n      swap2\n      pop\n        /* \"#utility.yul\":5209:5487   */\n      pop\n        /* \"#utility.yul\":5147:5487   */\n      swap3\n      swap2\n      pop\n      pop\n      jump\t// out\n        /* \"#utility.yul\":5493:5615   */\n    tag_61:\n        /* \"#utility.yul\":5566:5590   */\n      tag_144\n        /* \"#utility.yul\":5584:5589   */\n      dup2\n        /* \"#utility.yul\":5566:5590   */\n      tag_50\n      jump\t// in\n    tag_144:\n        /* \"#utility.yul\":5559:5564   */\n      dup2\n        /* \"#utility.yul\":5556:5591   */\n      eq\n        /* \"#utility.yul\":5546:5609   */\n      tag_145\n      jumpi\n        /* \"#utility.yul\":5605:5606   */\n      0x00\n        /* \"#utility.yul\":5602:5603   */\n      dup1\n        /* \"#utility.yul\":5595:5607   */\n      revert\n        /* \"#utility.yul\":5546:5609   */\n    tag_145:\n        /* \"#utility.yul\":5493:5615   */\n      pop\n      jump\t// out\n        /* \"#utility.yul\":5621:5760   */\n    tag_62:\n        /* \"#utility.yul\":5667:5672   */\n      0x00\n        /* \"#utility.yul\":5705:5711   */\n      dup2\n        /* \"#utility.yul\":5692:5712   */\n      calldataload\n        /* \"#utility.yul\":5683:5712   */\n      swap1\n      pop\n        /* \"#utility.yul\":5721:5754   */\n      tag_147\n        /* \"#utility.yul\":5748:5753   */\n      dup2\n        /* \"#utility.yul\":5721:5754   */\n      tag_61\n      jump\t// in\n    tag_147:\n        /* \"#utility.yul\":5621:5760   */\n      swap3\n      swap2\n      pop\n      pop\n      jump\t// out\n        /* \"#utility.yul\":5766:7037   */\n    tag_17:\n        /* \"#utility.yul\":5881:5887   */\n      0x00\n        /* \"#utility.yul\":5889:5895   */\n      dup1\n        /* \"#utility.yul\":5897:5903   */\n      0x00\n        /* \"#utility.yul\":5905:5911   */\n      dup1\n        /* \"#utility.yul\":5913:5919   */\n      0x00\n        /* \"#utility.yul\":5962:5965   */\n      0xa0\n        /* \"#utility.yul\":5950:5959   */\n      dup7\n        /* \"#utility.yul\":5941:5948   */\n      dup9\n        /* \"#utility.yul\":5937:5960   */\n      sub\n        /* \"#utility.yul\":5933:5966   */\n      slt\n        /* \"#utility.yul\":5930:6050   */\n      iszero\n      tag_149\n      jumpi\n        /* \"#utility.yul\":5969:6048   */\n      tag_150\n      tag_38\n      jump\t// in\n    tag_150:\n        /* \"#utility.yul\":5930:6050   */\n    tag_149:\n        /* \"#utility.yul\":6089:6090   */\n      0x00\n        /* \"#utility.yul\":6114:6167   */\n      tag_151\n        /* \"#utility.yul\":6159:6166   */\n      dup9\n        /* \"#utility.yul\":6150:6156   */\n      dup3\n        /* \"#utility.yul\":6139:6148   */\n      dup10\n        /* \"#utility.yul\":6135:6157   */\n      add\n        /* \"#utility.yul\":6114:6167   */\n      tag_42\n      jump\t// in\n    tag_151:\n        /* \"#utility.yul\":6104:6167   */\n      swap6\n      pop\n        /* \"#utility.yul\":6060:6177   */\n      pop\n        /* \"#utility.yul\":6244:6246   */\n      0x20\n        /* \"#utility.yul\":6233:6242   */\n      dup7\n        /* \"#utility.yul\":6229:6247   */\n      add\n        /* \"#utility.yul\":6216:6248   */\n      calldataload\n        /* \"#utility.yul\":6275:6293   */\n      0xffffffffffffffff\n        /* \"#utility.yul\":6267:6273   */\n      dup2\n        /* \"#utility.yul\":6264:6294   */\n      gt\n        /* \"#utility.yul\":6261:6378   */\n      iszero\n      tag_152\n      jumpi\n        /* \"#utility.yul\":6297:6376   */\n      tag_153\n      tag_39\n      jump\t// in\n    tag_153:\n        /* \"#utility.yul\":6261:6378   */\n    tag_152:\n        /* \"#utility.yul\":6402:6465   */\n      tag_154\n        /* \"#utility.yul\":6457:6464   */\n      dup9\n        /* \"#utility.yul\":6448:6454   */\n      dup3\n        /* \"#utility.yul\":6437:6446   */\n      dup10\n        /* \"#utility.yul\":6433:6455   */\n      add\n        /* \"#utility.yul\":6402:6465   */\n      tag_60\n      jump\t// in\n    tag_154:\n        /* \"#utility.yul\":6392:6465   */\n      swap5\n      pop\n        /* \"#utility.yul\":6187:6475   */\n      pop\n        /* \"#utility.yul\":6514:6516   */\n      0x40\n        /* \"#utility.yul\":6540:6593   */\n      tag_155\n        /* \"#utility.yul\":6585:6592   */\n      dup9\n        /* \"#utility.yul\":6576:6582   */\n      dup3\n        /* \"#utility.yul\":6565:6574   */\n      dup10\n        /* \"#utility.yul\":6561:6583   */\n      add\n        /* \"#utility.yul\":6540:6593   */\n      tag_42\n      jump\t// in\n    tag_155:\n        /* \"#utility.yul\":6530:6593   */\n      swap4\n      pop\n        /* \"#utility.yul\":6485:6603   */\n      pop\n        /* \"#utility.yul\":6670:6672   */\n      0x60\n        /* \"#utility.yul\":6659:6668   */\n      dup7\n        /* \"#utility.yul\":6655:6673   */\n      add\n        /* \"#utility.yul\":6642:6674   */\n      calldataload\n        /* \"#utility.yul\":6701:6719   */\n      0xffffffffffffffff\n        /* \"#utility.yul\":6693:6699   */\n      dup2\n        /* \"#utility.yul\":6690:6720   */\n      gt\n        /* \"#utility.yul\":6687:6804   */\n      iszero\n      tag_156\n      jumpi\n        /* \"#utility.yul\":6723:6802   */\n      tag_157\n      tag_39\n      jump\t// in\n    tag_157:\n        /* \"#utility.yul\":6687:6804   */\n    tag_156:\n        /* \"#utility.yul\":6828:6891   */\n      tag_158\n        /* \"#utility.yul\":6883:6890   */\n      dup9\n        /* \"#utility.yul\":6874:6880   */\n      dup3\n        /* \"#utility.yul\":6863:6872   */\n      dup10\n        /* \"#utility.yul\":6859:6881   */\n      add\n        /* \"#utility.yul\":6828:6891   */\n      tag_60\n      jump\t// in\n    tag_158:\n        /* \"#utility.yul\":6818:6891   */\n      swap3\n      pop\n        /* \"#utility.yul\":6613:6901   */\n      pop\n        /* \"#utility.yul\":6940:6943   */\n      0x80\n        /* \"#utility.yul\":6967:7020   */\n      tag_159\n        /* \"#utility.yul\":7012:7019   */\n      dup9\n        /* \"#utility.yul\":7003:7009   */\n      dup3\n        /* \"#utility.yul\":6992:7001   */\n      dup10\n        /* \"#utility.yul\":6988:7010   */\n      add\n        /* \"#utility.yul\":6967:7020   */\n      tag_62\n      jump\t// in\n    tag_159:\n        /* \"#utility.yul\":6957:7020   */\n      swap2\n      pop\n        /* \"#utility.yul\":6911:7030   */\n      pop\n        /* \"#utility.yul\":5766:7037   */\n      swap3\n      swap6\n      pop\n      swap3\n      swap6\n      swap1\n      swap4\n      pop\n      jump\t// out\n        /* \"#utility.yul\":7043:7223   */\n    tag_63:\n        /* \"#utility.yul\":7091:7168   */\n      0x4e487b7100000000000000000000000000000000000000000000000000000000\n        /* \"#utility.yul\":7088:7089   */\n      0x00\n        /* \"#utility.yul\":7081:7169   */\n      mstore\n        /* \"#utility.yul\":7188:7192   */\n      0x22\n        /* \"#utility.yul\":7185:7186   */\n      0x04\n        /* \"#utility.yul\":7178:7193   */\n      mstore\n        /* \"#utility.yul\":7212:7216   */\n      0x24\n        /* \"#utility.yul\":7209:7210   */\n      0x00\n        /* \"#utility.yul\":7202:7217   */\n      revert\n        /* \"#utility.yul\":7229:7549   */\n    tag_24:\n        /* \"#utility.yul\":7273:7279   */\n      0x00\n        /* \"#utility.yul\":7310:7311   */\n      0x02\n        /* \"#utility.yul\":7304:7308   */\n      dup3\n        /* \"#utility.yul\":7300:7312   */\n      div\n        /* \"#utility.yul\":7290:7312   */\n      swap1\n      pop\n        /* \"#utility.yul\":7357:7358   */\n      0x01\n        /* \"#utility.yul\":7351:7355   */\n      dup3\n        /* \"#utility.yul\":7347:7359   */\n      and\n        /* \"#utility.yul\":7378:7396   */\n      dup1\n        /* \"#utility.yul\":7368:7449   */\n      tag_162\n      jumpi\n        /* \"#utility.yul\":7434:7438   */\n      0x7f\n        /* \"#utility.yul\":7426:7432   */\n      dup3\n        /* \"#utility.yul\":7422:7439   */\n      and\n        /* \"#utility.yul\":7412:7439   */\n      swap2\n      pop\n        /* \"#utility.yul\":7368:7449   */\n    tag_162:\n        /* \"#utility.yul\":7496:7498   */\n      0x20\n        /* \"#utility.yul\":7488:7494   */\n      dup3\n        /* \"#utility.yul\":7485:7499   */\n      lt\n        /* \"#utility.yul\":7465:7483   */\n      dup2\n        /* \"#utility.yul\":7462:7500   */\n      sub\n        /* \"#utility.yul\":7459:7543   */\n      tag_163\n      jumpi\n        /* \"#utility.yul\":7515:7533   */\n      tag_164\n      tag_63\n      jump\t// in\n    tag_164:\n        /* \"#utility.yul\":7459:7543   */\n    tag_163:\n        /* \"#utility.yul\":7280:7549   */\n      pop\n        /* \"#utility.yul\":7229:7549   */\n      swap2\n      swap1\n      pop\n      jump\t// out\n        /* \"#utility.yul\":7555:7696   */\n    tag_64:\n        /* \"#utility.yul\":7604:7608   */\n      0x00\n        /* \"#utility.yul\":7627:7630   */\n      dup2\n        /* \"#utility.yul\":7619:7630   */\n      swap1\n      pop\n        /* \"#utility.yul\":7650:7653   */\n      dup2\n        /* \"#utility.yul\":7647:7648   */\n      0x00\n        /* \"#utility.yul\":7640:7654   */\n      mstore\n        /* \"#utility.yul\":7684:7688   */\n      0x20\n        /* \"#utility.yul\":7681:7682   */\n      0x00\n        /* \"#utility.yul\":7671:7689   */\n      keccak256\n        /* \"#utility.yul\":7663:7689   */\n      swap1\n      pop\n        /* \"#utility.yul\":7555:7696   */\n      swap2\n      swap1\n      pop\n      jump\t// out\n        /* \"#utility.yul\":7702:7795   */\n    tag_65:\n        /* \"#utility.yul\":7739:7745   */\n      0x00\n        /* \"#utility.yul\":7786:7788   */\n      0x20\n        /* \"#utility.yul\":7781:7783   */\n      0x1f\n        /* \"#utility.yul\":7774:7779   */\n      dup4\n        /* \"#utility.yul\":7770:7784   */\n      add\n        /* \"#utility.yul\":7766:7789   */\n      div\n        /* \"#utility.yul\":7756:7789   */\n      swap1\n      pop\n        /* \"#utility.yul\":7702:7795   */\n      swap2\n      swap1\n      pop\n      jump\t// out\n        /* \"#utility.yul\":7801:7908   */\n    tag_66:\n        /* \"#utility.yul\":7845:7853   */\n      0x00\n        /* \"#utility.yul\":7895:7900   */\n      dup3\n        /* \"#utility.yul\":7889:7893   */\n      dup3\n        /* \"#utility.yul\":7885:7901   */\n      shl\n        /* \"#utility.yul\":7864:7901   */\n      swap1\n      pop\n        /* \"#utility.yul\":7801:7908   */\n      swap3\n      swap2\n      pop\n      pop\n      jump\t// out\n        /* \"#utility.yul\":7914:8307   */\n    tag_67:\n        /* \"#utility.yul\":7983:7989   */\n      0x00\n        /* \"#utility.yul\":8033:8034   */\n      0x08\n        /* \"#utility.yul\":8021:8031   */\n      dup4\n        /* \"#utility.yul\":8017:8035   */\n      mul\n        /* \"#utility.yul\":8056:8153   */\n      tag_169\n        /* \"#utility.yul\":8086:8152   */\n      0xffffffffffffffffffffffffffffffffffffffffffffffffffffffffffffffff\n        /* \"#utility.yul\":8075:8084   */\n      dup3\n        /* \"#utility.yul\":8056:8153   */\n      tag_66\n      jump\t// in\n    tag_169:\n        /* \"#utility.yul\":8174:8213   */\n      tag_170\n        /* \"#utility.yul\":8204:8212   */\n      dup7\n        /* \"#utility.yul\":8193:8202   */\n      dup4\n        /* \"#utility.yul\":8174:8213   */\n      tag_66\n      jump\t// in\n    tag_170:\n        /* \"#utility.yul\":8162:8213   */\n      swap6\n      pop\n        /* \"#utility.yul\":8246:8250   */\n      dup1\n        /* \"#utility.yul\":8242:8251   */\n      not\n        /* \"#utility.yul\":8235:8240   */\n      dup5\n        /* \"#utility.yul\":8231:8252   */\n      and\n        /* \"#utility.yul\":8222:8252   */\n      swap4\n      pop\n        /* \"#utility.yul\":8295:8299   */\n      dup1\n        /* \"#utility.yul\":8285:8293   */\n      dup7\n        /* \"#utility.yul\":8281:8300   */\n      and\n        /* \"#utility.yul\":8274:8279   */\n      dup5\n        /* \"#utility.yul\":8271:8301   */\n      or\n        /* \"#utility.yul\":8261:8301   */\n      swap3\n      pop\n        /* \"#utility.yul\":7990:8307   */\n      pop\n      pop\n        /* \"#utility.yul\":7914:8307   */\n      swap4\n      swap3\n      pop\n      pop\n      pop\n      jump\t// out\n        /* \"#utility.yul\":8313:8373   */\n    tag_68:\n        /* \"#utility.yul\":8341:8344   */\n      0x00\n        /* \"#utility.yul\":8362:8367   */\n      dup2\n        /* \"#utility.yul\":8355:8367   */\n      swap1\n      pop\n        /* \"#utility.yul\":8313:8373   */\n      swap2\n      swap1\n      pop\n      jump\t// out\n        /* \"#utility.yul\":8379:8521   */\n    tag_69:\n        /* \"#utility.yul\":8429:8438   */\n      0x00\n        /* \"#utility.yul\":8462:8515   */\n      tag_173\n        /* \"#utility.yul\":8480:8514   */\n      tag_174\n        /* \"#utility.yul\":8489:8513   */\n      tag_175\n        /* \"#utility.yul\":8507:8512   */\n      dup5\n        /* \"#utility.yul\":8489:8513   */\n      tag_40\n      jump\t// in\n    tag_175:\n        /* \"#utility.yul\":8480:8514   */\n      tag_68\n      jump\t// in\n    tag_174:\n        /* \"#utility.yul\":8462:8515   */\n      tag_40\n      jump\t// in\n    tag_173:\n        /* \"#utility.yul\":8449:8515   */\n      swap1\n      pop\n        /* \"#utility.yul\":8379:8521   */\n      swap2\n      swap1\n      pop\n      jump\t// out\n        /* \"#utility.yul\":8527:8602   */\n    tag_70:\n        /* \"#utility.yul\":8570:8573   */\n      0x00\n        /* \"#utility.yul\":8591:8596   */\n      dup2\n        /* \"#utility.yul\":8584:8596   */\n      swap1\n      pop\n        /* \"#utility.yul\":8527:8602   */\n      swap2\n      swap1\n      pop\n      jump\t// out\n        /* \"#utility.yul\":8608:8877   */\n    tag_71:\n        /* \"#utility.yul\":8718:8757   */\n      tag_178\n        /* \"#utility.yul\":8749:8756   */\n      dup4\n        /* \"#utility.yul\":8718:8757   */\n      tag_69\n      jump\t// in\n    tag_178:\n        /* \"#utility.yul\":8779:8870   */\n      tag_179\n        /* \"#utility.yul\":8828:8869   */\n      tag_180\n        /* \"#utility.yul\":8852:8868   */\n      dup3\n        /* \"#utility.yul\":8828:8869   */\n      tag_70\n      jump\t// in\n    tag_180:\n        /* \"#utility.yul\":8820:8826   */\n      dup5\n        /* \"#utility.yul\":8813:8817   */\n      dup5\n        /* \"#utility.yul\":8807:8818   */\n      sload\n        /* \"#utility.yul\":8779:8870   */\n      tag_67\n      jump\t// in\n    tag_179:\n        /* \"#utility.yul\":8773:8777   */\n      dup3\n        /* \"#utility.yul\":8766:8871   */\n      sstore\n        /* \"#utility.yul\":8684:8877   */\n      pop\n        /* \"#utility.yul\":8608:8877   */\n      pop\n      pop\n      pop\n      jump\t// out\n        /* \"#utility.yul\":8883:8956   */\n    tag_72:\n        /* \"#utility.yul\":8928:8931   */\n      0x00\n        /* \"#utility.yul\":8883:8956   */\n      swap1\n      jump\t// out\n        /* \"#utility.yul\":8962:9151   */\n    tag_73:\n        /* \"#utility.yul\":9039:9071   */\n      tag_183\n      tag_72\n      jump\t// in\n    tag_183:\n        /* \"#utility.yul\":9080:9145   */\n      tag_184\n        /* \"#utility.yul\":9138:9144   */\n      dup2\n        /* \"#utility.yul\":9130:9136   */\n      dup5\n        /* \"#utility.yul\":9124:9128   */\n      dup5\n        /* \"#utility.yul\":9080:9145   */\n      tag_71\n      jump\t// in\n    tag_184:\n        /* \"#utility.yul\":9015:9151   */\n      pop\n        /* \"#utility.yul\":8962:9151   */\n      pop\n      pop\n      jump\t// out\n        /* \"#utility.yul\":9157:9343   */\n    tag_74:\n        /* \"#utility.yul\":9217:9337   */\n    tag_186:\n        /* \"#utility.yul\":9234:9237   */\n      dup2\n        /* \"#utility.yul\":9227:9232   */\n      dup2\n        /* \"#utility.yul\":9224:9238   */\n      lt\n        /* \"#utility.yul\":9217:9337   */\n      iszero\n      tag_188\n      jumpi\n        /* \"#utility.yul\":9288:9327   */\n      tag_189\n        /* \"#utility.yul\":9325:9326   */\n      0x00\n        /* \"#utility.yul\":9318:9323   */\n      dup3\n        /* \"#utility.yul\":9288:9327   */\n      tag_73\n      jump\t// in\n    tag_189:\n        /* \"#utility.yul\":9261:9262   */\n      0x01\n        /* \"#utility.yul\":9254:9259   */\n      dup2\n        /* \"#utility.yul\":9250:9263   */\n      add\n        /* \"#utility.yul\":9241:9263   */\n      swap1\n      pop\n        /* \"#utility.yul\":9217:9337   */\n      jump(tag_186)\n    tag_188:\n        /* \"#utility.yul\":9157:9343   */\n      pop\n      pop\n      jump\t// out\n        /* \"#utility.yul\":9349:9892   */\n    tag_75:\n        /* \"#utility.yul\":9450:9452   */\n      0x1f\n        /* \"#utility.yul\":9445:9448   */\n      dup3\n        /* \"#utility.yul\":9442:9453   */\n      gt\n        /* \"#utility.yul\":9439:9885   */\n      iszero\n      tag_191\n      jumpi\n        /* \"#utility.yul\":9484:9522   */\n      tag_192\n        /* \"#utility.yul\":9516:9521   */\n      dup2\n        /* \"#utility.yul\":9484:9522   */\n      tag_64\n      jump\t// in\n    tag_192:\n        /* \"#utility.yul\":9568:9597   */\n      tag_193\n        /* \"#utility.yul\":9586:9596   */\n      dup5\n        /* \"#utility.yul\":9568:9597   */\n      tag_65\n      jump\t// in\n    tag_193:\n        /* \"#utility.yul\":9558:9566   */\n      dup2\n        /* \"#utility.yul\":9554:9598   */\n      add\n        /* \"#utility.yul\":9751:9753   */\n      0x20\n        /* \"#utility.yul\":9739:9749   */\n      dup6\n        /* \"#utility.yul\":9736:9754   */\n      lt\n        /* \"#utility.yul\":9733:9782   */\n      iszero\n      tag_194\n      jumpi\n        /* \"#utility.yul\":9772:9780   */\n      dup2\n        /* \"#utility.yul\":9757:9780   */\n      swap1\n      pop\n        /* \"#utility.yul\":9733:9782   */\n    tag_194:\n        /* \"#utility.yul\":9795:9875   */\n      tag_195\n        /* \"#utility.yul\":9851:9873   */\n      tag_196\n        /* \"#utility.yul\":9869:9872   */\n      dup6\n        /* \"#utility.yul\":9851:9873   */\n      tag_65\n      jump\t// in\n    tag_196:\n        /* \"#utility.yul\":9841:9849   */\n      dup4\n        /* \"#utility.yul\":9837:9874   */\n      add\n        /* \"#utility.yul\":9824:9835   */\n      dup3\n        /* \"#utility.yul\":9795:9875   */\n      tag_74\n      jump\t// in\n    tag_195:\n        /* \"#utility.yul\":9454:9885   */\n      pop\n      pop\n        /* \"#utility.yul\":9439:9885   */\n    tag_191:\n        /* \"#utility.yul\":9349:9892   */\n      pop\n      pop\n      pop\n      jump\t// out\n        /* \"#utility.yul\":9898:10015   */\n    tag_76:\n        /* \"#utility.yul\":9952:9960   */\n      0x00\n        /* \"#utility.yul\":10002:10007   */\n      dup3\n        /* \"#utility.yul\":9996:10000   */\n      dup3\n        /* \"#utility.yul\":9992:10008   */\n      shr\n        /* \"#utility.yul\":9971:10008   */\n      swap1\n      pop\n        /* \"#utility.yul\":9898:10015   */\n      swap3\n      swap2\n      pop\n      pop\n      jump\t// out\n        /* \"#utility.yul\":10021:10190   */\n    tag_77:\n        /* \"#utility.yul\":10065:10071   */\n      0x00\n        /* \"#utility.yul\":10098:10149   */\n      tag_199\n        /* \"#utility.yul\":10146:10147   */\n      0x00\n        /* \"#utility.yul\":10142:10148   */\n      not\n        /* \"#utility.yul\":10134:10139   */\n      dup5\n        /* \"#utility.yul\":10131:10132   */\n      0x08\n        /* \"#utility.yul\":10127:10140   */\n      mul\n        /* \"#utility.yul\":10098:10149   */\n      tag_76\n      jump\t// in\n    tag_199:\n        /* \"#utility.yul\":10094:10150   */\n      not\n        /* \"#utility.yul\":10179:10183   */\n      dup1\n        /* \"#utility.yul\":10173:10177   */\n      dup4\n        /* \"#utility.yul\":10169:10184   */\n      and\n        /* \"#utility.yul\":10159:10184   */\n      swap2\n      pop\n        /* \"#utility.yul\":10072:10190   */\n      pop\n        /* \"#utility.yul\":10021:10190   */\n      swap3\n      swap2\n      pop\n      pop\n      jump\t// out\n        /* \"#utility.yul\":10195:10490   */\n    tag_78:\n        /* \"#utility.yul\":10271:10275   */\n      0x00\n        /* \"#utility.yul\":10417:10446   */\n      tag_201\n        /* \"#utility.yul\":10442:10445   */\n      dup4\n        /* \"#utility.yul\":10436:10440   */\n      dup4\n        /* \"#utility.yul\":10417:10446   */\n      tag_77\n      jump\t// in\n    tag_201:\n        /* \"#utility.yul\":10409:10446   */\n      swap2\n      pop\n        /* \"#utility.yul\":10479:10482   */\n      dup3\n        /* \"#utility.yul\":10476:10477   */\n      0x02\n        /* \"#utility.yul\":10472:10483   */\n      mul\n        /* \"#utility.yul\":10466:10470   */\n      dup3\n        /* \"#utility.yul\":10463:10484   */\n      or\n        /* \"#utility.yul\":10455:10484   */\n      swap1\n      pop\n        /* \"#utility.yul\":10195:10490   */\n      swap3\n      swap2\n      pop\n      pop\n      jump\t// out\n        /* \"#utility.yul\":10495:11890   */\n    tag_21:\n        /* \"#utility.yul\":10612:10649   */\n      tag_203\n        /* \"#utility.yul\":10645:10648   */\n      dup3\n        /* \"#utility.yul\":10612:10649   */\n      tag_44\n      jump\t// in\n    tag_203:\n        /* \"#utility.yul\":10714:10732   */\n      0xffffffffffffffff\n        /* \"#utility.yul\":10706:10712   */\n      dup2\n        /* \"#utility.yul\":10703:10733   */\n      gt\n        /* \"#utility.yul\":10700:10756   */\n      iszero\n      tag_204\n      jumpi\n        /* \"#utility.yul\":10736:10754   */\n      tag_205\n      tag_54\n      jump\t// in\n    tag_205:\n        /* \"#utility.yul\":10700:10756   */\n    tag_204:\n        /* \"#utility.yul\":10780:10818   */\n      tag_206\n        /* \"#utility.yul\":10812:10816   */\n      dup3\n        /* \"#utility.yul\":10806:10817   */\n      sload\n        /* \"#utility.yul\":10780:10818   */\n      tag_24\n      jump\t// in\n    tag_206:\n        /* \"#utility.yul\":10865:10932   */\n      tag_207\n        /* \"#utility.yul\":10925:10931   */\n      dup3\n        /* \"#utility.yul\":10917:10923   */\n      dup3\n        /* \"#utility.yul\":10911:10915   */\n      dup6\n        /* \"#utility.yul\":10865:10932   */\n      tag_75\n      jump\t// in\n    tag_207:\n        /* \"#utility.yul\":10959:10960   */\n      0x00\n        /* \"#utility.yul\":10983:10987   */\n      0x20\n        /* \"#utility.yul\":10970:10987   */\n      swap1\n      pop\n        /* \"#utility.yul\":11015:11017   */\n      0x1f\n        /* \"#utility.yul\":11007:11013   */\n      dup4\n        /* \"#utility.yul\":11004:11018   */\n      gt\n        /* \"#utility.yul\":11032:11033   */\n      0x01\n        /* \"#utility.yul\":11027:11645   */\n      dup2\n      eq\n      tag_209\n      jumpi\n        /* \"#utility.yul\":11689:11690   */\n      0x00\n        /* \"#utility.yul\":11706:11712   */\n      dup5\n        /* \"#utility.yul\":11703:11780   */\n      iszero\n      tag_210\n      jumpi\n        /* \"#utility.yul\":11755:11764   */\n      dup3\n        /* \"#utility.yul\":11750:11753   */\n      dup8\n        /* \"#utility.yul\":11746:11765   */\n      add\n        /* \"#utility.yul\":11740:11766   */\n      mload\n        /* \"#utility.yul\":11731:11766   */\n      swap1\n      pop\n        /* \"#utility.yul\":11703:11780   */\n    tag_210:\n        /* \"#utility.yul\":11806:11873   */\n      tag_211\n        /* \"#utility.yul\":11866:11872   */\n      dup6\n        /* \"#utility.yul\":11859:11864   */\n      dup3\n        /* \"#utility.yul\":11806:11873   */\n      tag_78\n      jump\t// in\n    tag_211:\n        /* \"#utility.yul\":11800:11804   */\n      dup7\n        /* \"#utility.yul\":11793:11874   */\n      sstore\n        /* \"#utility.yul\":11662:11884   */\n      pop\n        /* \"#utility.yul\":10997:11884   */\n      jump(tag_208)\n        /* \"#utility.yul\":11027:11645   */\n    tag_209:\n        /* \"#utility.yul\":11079:11083   */\n      0x1f\n        /* \"#utility.yul\":11075:11084   */\n      not\n        /* \"#utility.yul\":11067:11073   */\n      dup5\n        /* \"#utility.yul\":11063:11085   */\n      and\n        /* \"#utility.yul\":11113:11150   */\n      tag_212\n        /* \"#utility.yul\":11145:11149   */\n      dup7\n        /* \"#utility.yul\":11113:11150   */\n      tag_64\n      jump\t// in\n    tag_212:\n        /* \"#utility.yul\":11172:11173   */\n      0x00\n        /* \"#utility.yul\":11186:11394   */\n    tag_213:\n        /* \"#utility.yul\":11200:11207   */\n      dup3\n        /* \"#utility.yul\":11197:11198   */\n      dup2\n        /* \"#utility.yul\":11194:11208   */\n      lt\n        /* \"#utility.yul\":11186:11394   */\n      iszero\n      tag_215\n      jumpi\n        /* \"#utility.yul\":11279:11288   */\n      dup5\n        /* \"#utility.yul\":11274:11277   */\n      dup10\n        /* \"#utility.yul\":11270:11289   */\n      add\n        /* \"#utility.yul\":11264:11290   */\n      mload\n        /* \"#utility.yul\":11256:11262   */\n      dup3\n        /* \"#utility.yul\":11249:11291   */\n      sstore\n        /* \"#utility.yul\":11330:11331   */\n      0x01\n        /* \"#utility.yul\":11322:11328   */\n      dup3\n        /* \"#utility.yul\":11318:11332   */\n      add\n        /* \"#utility.yul\":11308:11332   */\n      swap2\n      pop\n        /* \"#utility.yul\":11377:11379   */\n      0x20\n        /* \"#utility.yul\":11366:11375   */\n      dup6\n        /* \"#utility.yul\":11362:11380   */\n      add\n        /* \"#utility.yul\":11349:11380   */\n      swap5\n      pop\n        /* \"#utility.yul\":11223:11227   */\n      0x20\n        /* \"#utility.yul\":11220:11221   */\n      dup2\n        /* \"#utility.yul\":11216:11228   */\n      add\n        /* \"#utility.yul\":11211:11228   */\n      swap1\n      pop\n        /* \"#utility.yul\":11186:11394   */\n      jump(tag_213)\n    tag_215:\n        /* \"#utility.yul\":11422:11428   */\n      dup7\n        /* \"#utility.yul\":11413:11420   */\n      dup4\n        /* \"#utility.yul\":11410:11429   */\n      lt\n        /* \"#utility.yul\":11407:11586   */\n      iszero\n      tag_216\n      jumpi\n        /* \"#utility.yul\":11480:11489   */\n      dup5\n        /* \"#utility.yul\":11475:11478   */\n      dup10\n        /* \"#utility.yul\":11471:11490   */\n      add\n        /* \"#utility.yul\":11465:11491   */\n      mload\n        /* \"#utility.yul\":11523:11571   */\n      tag_217\n        /* \"#utility.yul\":11565:11569   */\n      0x1f\n        /* \"#utility.yul\":11557:11563   */\n      dup10\n        /* \"#utility.yul\":11553:11570   */\n      and\n        /* \"#utility.yul\":11542:11551   */\n      dup3\n        /* \"#utility.yul\":11523:11571   */\n      tag_77\n      jump\t// in\n    tag_217:\n        /* \"#utility.yul\":11515:11521   */\n      dup4\n        /* \"#utility.yul\":11508:11572   */\n      sstore\n        /* \"#utility.yul\":11430:11586   */\n      pop\n        /* \"#utility.yul\":11407:11586   */\n    tag_216:\n        /* \"#utility.yul\":11632:11633   */\n      0x01\n        /* \"#utility.yul\":11628:11629   */\n      0x02\n        /* \"#utility.yul\":11620:11626   */\n      dup9\n        /* \"#utility.yul\":11616:11630   */\n      mul\n        /* \"#utility.yul\":11612:11634   */\n      add\n        /* \"#utility.yul\":11606:11610   */\n      dup9\n        /* \"#utility.yul\":11599:11635   */\n      sstore\n        /* \"#utility.yul\":11034:11645   */\n      pop\n      pop\n      pop\n        /* \"#utility.yul\":10997:11884   */\n    tag_208:\n      pop\n        /* \"#utility.yul\":10587:11890   */\n      pop\n      pop\n      pop\n        /* \"#utility.yul\":10495:11890   */\n      pop\n      pop\n      jump\t// out\n\n    auxdata: 0xa2646970667358221220a4251ff26260addcc4f7977cfb9e55cbbdaa1ea68cb236bfe162bd5b882f228d64736f6c63430008140033\n}\n",
				"bytecode": {
					"linkReferences": {},
					"object": "608060405234801561000f575f80fd5b50610a838061001d5f395ff3fe608060405234801561000f575f80fd5b506004361061003f575f3560e01c80632e28a7ca146100435780633088c00f1461005f5780634a123e0914610093575b5f80fd5b61005d6004803603810190610058919061041d565b6100af565b005b6100796004803603810190610074919061041d565b6101a2565b60405161008a959493929190610520565b60405180910390f35b6100ad60048036038101906100a891906106d5565b6102fe565b005b6040518060a001604052805f815260200160405180602001604052805f81525081526020015f815260200160405180602001604052805f81525081526020015f73ffffffffffffffffffffffffffffffffffffffff168152505f808381526020019081526020015f205f820151815f01556020820151816001019081610135919061097e565b50604082015181600201556060820151816003019081610155919061097e565b506080820151816004015f6101000a81548173ffffffffffffffffffffffffffffffffffffffff021916908373ffffffffffffffffffffffffffffffffffffffff16021790555090505050565b5f602052805f5260405f205f91509050805f0154908060010180546101c6906107b1565b80601f01602080910402602001604051908101604052809291908181526020018280546101f2906107b1565b801561023d5780601f106102145761010080835404028352916020019161023d565b820191905f5260205f20905b81548152906001019060200180831161022057829003601f168201915b505050505090806002015490806003018054610258906107b1565b80601f0160208091040260200160405190810160405280929190818152602001828054610284906107b1565b80156102cf5780601f106102a6576101008083540402835291602001916102cf565b820191905f5260205f20905b8154815290600101906020018083116102b257829003601f168201915b505050505090806004015f9054906101000a900473ffffffffffffffffffffffffffffffffffffffff16905085565b6040518060a001604052808681526020018581526020018481526020018381526020018273ffffffffffffffffffffffffffffffffffffffff168152505f808781526020019081526020015f205f820151815f01556020820151816001019081610368919061097e565b50604082015181600201556060820151816003019081610388919061097e565b506080820151816004015f6101000a81548173ffffffffffffffffffffffffffffffffffffffff021916908373ffffffffffffffffffffffffffffffffffffffff1602179055509050505050505050565b5f604051905090565b5f80fd5b5f80fd5b5f819050919050565b6103fc816103ea565b8114610406575f80fd5b50565b5f81359050610417816103f3565b92915050565b5f60208284031215610432576104316103e2565b5b5f61043f84828501610409565b91505092915050565b610451816103ea565b82525050565b5f81519050919050565b5f82825260208201905092915050565b5f5b8381101561048e578082015181840152602081019050610473565b5f8484015250505050565b5f601f19601f8301169050919050565b5f6104b382610457565b6104bd8185610461565b93506104cd818560208601610471565b6104d681610499565b840191505092915050565b5f73ffffffffffffffffffffffffffffffffffffffff82169050919050565b5f61050a826104e1565b9050919050565b61051a81610500565b82525050565b5f60a0820190506105335f830188610448565b818103602083015261054581876104a9565b90506105546040830186610448565b818103606083015261056681856104a9565b90506105756080830184610511565b9695505050505050565b5f80fd5b5f80fd5b7f4e487b71000000000000000000000000000000000000000000000000000000005f52604160045260245ffd5b6105bd82610499565b810181811067ffffffffffffffff821117156105dc576105db610587565b5b80604052505050565b5f6105ee6103d9565b90506105fa82826105b4565b919050565b5f67ffffffffffffffff82111561061957610618610587565b5b61062282610499565b9050602081019050919050565b828183375f83830152505050565b5f61064f61064a846105ff565b6105e5565b90508281526020810184848401111561066b5761066a610583565b5b61067684828561062f565b509392505050565b5f82601f8301126106925761069161057f565b5b81356106a284826020860161063d565b91505092915050565b6106b481610500565b81146106be575f80fd5b50565b5f813590506106cf816106ab565b92915050565b5f805f805f60a086880312156106ee576106ed6103e2565b5b5f6106fb88828901610409565b955050602086013567ffffffffffffffff81111561071c5761071b6103e6565b5b6107288882890161067e565b945050604061073988828901610409565b935050606086013567ffffffffffffffff81111561075a576107596103e6565b5b6107668882890161067e565b9250506080610777888289016106c1565b9150509295509295909350565b7f4e487b71000000000000000000000000000000000000000000000000000000005f52602260045260245ffd5b5f60028204905060018216806107c857607f821691505b6020821081036107db576107da610784565b5b50919050565b5f819050815f5260205f209050919050565b5f6020601f8301049050919050565b5f82821b905092915050565b5f6008830261083d7fffffffffffffffffffffffffffffffffffffffffffffffffffffffffffffffff82610802565b6108478683610802565b95508019841693508086168417925050509392505050565b5f819050919050565b5f61088261087d610878846103ea565b61085f565b6103ea565b9050919050565b5f819050919050565b61089b83610868565b6108af6108a782610889565b84845461080e565b825550505050565b5f90565b6108c36108b7565b6108ce818484610892565b505050565b5b818110156108f1576108e65f826108bb565b6001810190506108d4565b5050565b601f82111561093657610907816107e1565b610910846107f3565b8101602085101561091f578190505b61093361092b856107f3565b8301826108d3565b50505b505050565b5f82821c905092915050565b5f6109565f198460080261093b565b1980831691505092915050565b5f61096e8383610947565b9150826002028217905092915050565b61098782610457565b67ffffffffffffffff8111156109a05761099f610587565b5b6109aa82546107b1565b6109b58282856108f5565b5f60209050601f8311600181146109e6575f84156109d4578287015190505b6109de8582610963565b865550610a45565b601f1984166109f4866107e1565b5f5b82811015610a1b578489015182556001820191506020850194506020810190506109f6565b86831015610a385784890151610a34601f891682610947565b8355505b6001600288020188555050505b50505050505056fea2646970667358221220a4251ff26260addcc4f7977cfb9e55cbbdaa1ea68cb236bfe162bd5b882f228d64736f6c63430008140033",
					"opcodes": "PUSH1 0x80 PUSH1 0x40 MSTORE CALLVALUE DUP1 ISZERO PUSH2 0xF JUMPI PUSH0 DUP1 REVERT JUMPDEST POP PUSH2 0xA83 DUP1 PUSH2 0x1D PUSH0 CODECOPY PUSH0 RETURN INVALID PUSH1 0x80 PUSH1 0x40 MSTORE CALLVALUE DUP1 ISZERO PUSH2 0xF JUMPI PUSH0 DUP1 REVERT JUMPDEST POP PUSH1 0x4 CALLDATASIZE LT PUSH2 0x3F JUMPI PUSH0 CALLDATALOAD PUSH1 0xE0 SHR DUP1 PUSH4 0x2E28A7CA EQ PUSH2 0x43 JUMPI DUP1 PUSH4 0x3088C00F EQ PUSH2 0x5F JUMPI DUP1 PUSH4 0x4A123E09 EQ PUSH2 0x93 JUMPI JUMPDEST PUSH0 DUP1 REVERT JUMPDEST PUSH2 0x5D PUSH1 0x4 DUP1 CALLDATASIZE SUB DUP2 ADD SWAP1 PUSH2 0x58 SWAP2 SWAP1 PUSH2 0x41D JUMP JUMPDEST PUSH2 0xAF JUMP JUMPDEST STOP JUMPDEST PUSH2 0x79 PUSH1 0x4 DUP1 CALLDATASIZE SUB DUP2 ADD SWAP1 PUSH2 0x74 SWAP2 SWAP1 PUSH2 0x41D JUMP JUMPDEST PUSH2 0x1A2 JUMP JUMPDEST PUSH1 0x40 MLOAD PUSH2 0x8A SWAP6 SWAP5 SWAP4 SWAP3 SWAP2 SWAP1 PUSH2 0x520 JUMP JUMPDEST PUSH1 0x40 MLOAD DUP1 SWAP2 SUB SWAP1 RETURN JUMPDEST PUSH2 0xAD PUSH1 0x4 DUP1 CALLDATASIZE SUB DUP2 ADD SWAP1 PUSH2 0xA8 SWAP2 SWAP1 PUSH2 0x6D5 JUMP JUMPDEST PUSH2 0x2FE JUMP JUMPDEST STOP JUMPDEST PUSH1 0x40 MLOAD DUP1 PUSH1 0xA0 ADD PUSH1 0x40 MSTORE DUP1 PUSH0 DUP2 MSTORE PUSH1 0x20 ADD PUSH1 0x40 MLOAD DUP1 PUSH1 0x20 ADD PUSH1 0x40 MSTORE DUP1 PUSH0 DUP2 MSTORE POP DUP2 MSTORE PUSH1 0x20 ADD PUSH0 DUP2 MSTORE PUSH1 0x20 ADD PUSH1 0x40 MLOAD DUP1 PUSH1 0x20 ADD PUSH1 0x40 MSTORE DUP1 PUSH0 DUP2 MSTORE POP DUP2 MSTORE PUSH1 0x20 ADD PUSH0 PUSH20 0xFFFFFFFFFFFFFFFFFFFFFFFFFFFFFFFFFFFFFFFF AND DUP2 MSTORE POP PUSH0 DUP1 DUP4 DUP2 MSTORE PUSH1 0x20 ADD SWAP1 DUP2 MSTORE PUSH1 0x20 ADD PUSH0 KECCAK256 PUSH0 DUP3 ADD MLOAD DUP2 PUSH0 ADD SSTORE PUSH1 0x20 DUP3 ADD MLOAD DUP2 PUSH1 0x1 ADD SWAP1 DUP2 PUSH2 0x135 SWAP2 SWAP1 PUSH2 0x97E JUMP JUMPDEST POP PUSH1 0x40 DUP3 ADD MLOAD DUP2 PUSH1 0x2 ADD SSTORE PUSH1 0x60 DUP3 ADD MLOAD DUP2 PUSH1 0x3 ADD SWAP1 DUP2 PUSH2 0x155 SWAP2 SWAP1 PUSH2 0x97E JUMP JUMPDEST POP PUSH1 0x80 DUP3 ADD MLOAD DUP2 PUSH1 0x4 ADD PUSH0 PUSH2 0x100 EXP DUP2 SLOAD DUP2 PUSH20 0xFFFFFFFFFFFFFFFFFFFFFFFFFFFFFFFFFFFFFFFF MUL NOT AND SWAP1 DUP4 PUSH20 0xFFFFFFFFFFFFFFFFFFFFFFFFFFFFFFFFFFFFFFFF AND MUL OR SWAP1 SSTORE POP SWAP1 POP POP POP JUMP JUMPDEST PUSH0 PUSH1 0x20 MSTORE DUP1 PUSH0 MSTORE PUSH1 0x40 PUSH0 KECCAK256 PUSH0 SWAP2 POP SWAP1 POP DUP1 PUSH0 ADD SLOAD SWAP1 DUP1 PUSH1 0x1 ADD DUP1 SLOAD PUSH2 0x1C6 SWAP1 PUSH2 0x7B1 JUMP JUMPDEST DUP1 PUSH1 0x1F ADD PUSH1 0x20 DUP1 SWAP2 DIV MUL PUSH1 0x20 ADD PUSH1 0x40 MLOAD SWAP1 DUP2 ADD PUSH1 0x40 MSTORE DUP1 SWAP3 SWAP2 SWAP1 DUP2 DUP2 MSTORE PUSH1 0x20 ADD DUP3 DUP1 SLOAD PUSH2 0x1F2 SWAP1 PUSH2 0x7B1 JUMP JUMPDEST DUP1 ISZERO PUSH2 0x23D JUMPI DUP1 PUSH1 0x1F LT PUSH2 0x214 JUMPI PUSH2 0x100 DUP1 DUP4 SLOAD DIV MUL DUP4 MSTORE SWAP2 PUSH1 0x20 ADD SWAP2 PUSH2 0x23D JUMP JUMPDEST DUP3 ADD SWAP2 SWAP1 PUSH0 MSTORE PUSH1 0x20 PUSH0 KECCAK256 SWAP1 JUMPDEST DUP2 SLOAD DUP2 MSTORE SWAP1 PUSH1 0x1 ADD SWAP1 PUSH1 0x20 ADD DUP1 DUP4 GT PUSH2 0x220 JUMPI DUP3 SWAP1 SUB PUSH1 0x1F AND DUP3 ADD SWAP2 JUMPDEST POP POP POP POP POP SWAP1 DUP1 PUSH1 0x2 ADD SLOAD SWAP1 DUP1 PUSH1 0x3 ADD DUP1 SLOAD PUSH2 0x258 SWAP1 PUSH2 0x7B1 JUMP JUMPDEST DUP1 PUSH1 0x1F ADD PUSH1 0x20 DUP1 SWAP2 DIV MUL PUSH1 0x20 ADD PUSH1 0x40 MLOAD SWAP1 DUP2 ADD PUSH1 0x40 MSTORE DUP1 SWAP3 SWAP2 SWAP1 DUP2 DUP2 MSTORE PUSH1 0x20 ADD DUP3 DUP1 SLOAD PUSH2 0x284 SWAP1 PUSH2 0x7B1 JUMP JUMPDEST DUP1 ISZERO PUSH2 0x2CF JUMPI DUP1 PUSH1 0x1F LT PUSH2 0x2A6 JUMPI PUSH2 0x100 DUP1 DUP4 SLOAD DIV MUL DUP4 MSTORE SWAP2 PUSH1 0x20 ADD SWAP2 PUSH2 0x2CF JUMP JUMPDEST DUP3 ADD SWAP2 SWAP1 PUSH0 MSTORE PUSH1 0x20 PUSH0 KECCAK256 SWAP1 JUMPDEST DUP2 SLOAD DUP2 MSTORE SWAP1 PUSH1 0x1 ADD SWAP1 PUSH1 0x20 ADD DUP1 DUP4 GT PUSH2 0x2B2 JUMPI DUP3 SWAP1 SUB PUSH1 0x1F AND DUP3 ADD SWAP2 JUMPDEST POP POP POP POP POP SWAP1 DUP1 PUSH1 0x4 ADD PUSH0 SWAP1 SLOAD SWAP1 PUSH2 0x100 EXP SWAP1 DIV PUSH20 0xFFFFFFFFFFFFFFFFFFFFFFFFFFFFFFFFFFFFFFFF AND SWAP1 POP DUP6 JUMP JUMPDEST PUSH1 0x40 MLOAD DUP1 PUSH1 0xA0 ADD PUSH1 0x40 MSTORE DUP1 DUP7 DUP2 MSTORE PUSH1 0x20 ADD DUP6 DUP2 MSTORE PUSH1 0x20 ADD DUP5 DUP2 MSTORE PUSH1 0x20 ADD DUP4 DUP2 MSTORE PUSH1 0x20 ADD DUP3 PUSH20 0xFFFFFFFFFFFFFFFFFFFFFFFFFFFFFFFFFFFFFFFF AND DUP2 MSTORE POP PUSH0 DUP1 DUP8 DUP2 MSTORE PUSH1 0x20 ADD SWAP1 DUP2 MSTORE PUSH1 0x20 ADD PUSH0 KECCAK256 PUSH0 DUP3 ADD MLOAD DUP2 PUSH0 ADD SSTORE PUSH1 0x20 DUP3 ADD MLOAD DUP2 PUSH1 0x1 ADD SWAP1 DUP2 PUSH2 0x368 SWAP2 SWAP1 PUSH2 0x97E JUMP JUMPDEST POP PUSH1 0x40 DUP3 ADD MLOAD DUP2 PUSH1 0x2 ADD SSTORE PUSH1 0x60 DUP3 ADD MLOAD DUP2 PUSH1 0x3 ADD SWAP1 DUP2 PUSH2 0x388 SWAP2 SWAP1 PUSH2 0x97E JUMP JUMPDEST POP PUSH1 0x80 DUP3 ADD MLOAD DUP2 PUSH1 0x4 ADD PUSH0 PUSH2 0x100 EXP DUP2 SLOAD DUP2 PUSH20 0xFFFFFFFFFFFFFFFFFFFFFFFFFFFFFFFFFFFFFFFF MUL NOT AND SWAP1 DUP4 PUSH20 0xFFFFFFFFFFFFFFFFFFFFFFFFFFFFFFFFFFFFFFFF AND MUL OR SWAP1 SSTORE POP SWAP1 POP POP POP POP POP POP POP JUMP JUMPDEST PUSH0 PUSH1 0x40 MLOAD SWAP1 POP SWAP1 JUMP JUMPDEST PUSH0 DUP1 REVERT JUMPDEST PUSH0 DUP1 REVERT JUMPDEST PUSH0 DUP2 SWAP1 POP SWAP2 SWAP1 POP JUMP JUMPDEST PUSH2 0x3FC DUP2 PUSH2 0x3EA JUMP JUMPDEST DUP2 EQ PUSH2 0x406 JUMPI PUSH0 DUP1 REVERT JUMPDEST POP JUMP JUMPDEST PUSH0 DUP2 CALLDATALOAD SWAP1 POP PUSH2 0x417 DUP2 PUSH2 0x3F3 JUMP JUMPDEST SWAP3 SWAP2 POP POP JUMP JUMPDEST PUSH0 PUSH1 0x20 DUP3 DUP5 SUB SLT ISZERO PUSH2 0x432 JUMPI PUSH2 0x431 PUSH2 0x3E2 JUMP JUMPDEST JUMPDEST PUSH0 PUSH2 0x43F DUP5 DUP3 DUP6 ADD PUSH2 0x409 JUMP JUMPDEST SWAP2 POP POP SWAP3 SWAP2 POP POP JUMP JUMPDEST PUSH2 0x451 DUP2 PUSH2 0x3EA JUMP JUMPDEST DUP3 MSTORE POP POP JUMP JUMPDEST PUSH0 DUP2 MLOAD SWAP1 POP SWAP2 SWAP1 POP JUMP JUMPDEST PUSH0 DUP3 DUP3 MSTORE PUSH1 0x20 DUP3 ADD SWAP1 POP SWAP3 SWAP2 POP POP JUMP JUMPDEST PUSH0 JUMPDEST DUP4 DUP2 LT ISZERO PUSH2 0x48E JUMPI DUP1 DUP3 ADD MLOAD DUP2 DUP5 ADD MSTORE PUSH1 0x20 DUP2 ADD SWAP1 POP PUSH2 0x473 JUMP JUMPDEST PUSH0 DUP5 DUP5 ADD MSTORE POP POP POP POP JUMP JUMPDEST PUSH0 PUSH1 0x1F NOT PUSH1 0x1F DUP4 ADD AND SWAP1 POP SWAP2 SWAP1 POP JUMP JUMPDEST PUSH0 PUSH2 0x4B3 DUP3 PUSH2 0x457 JUMP JUMPDEST PUSH2 0x4BD DUP2 DUP6 PUSH2 0x461 JUMP JUMPDEST SWAP4 POP PUSH2 0x4CD DUP2 DUP6 PUSH1 0x20 DUP7 ADD PUSH2 0x471 JUMP JUMPDEST PUSH2 0x4D6 DUP2 PUSH2 0x499 JUMP JUMPDEST DUP5 ADD SWAP2 POP POP SWAP3 SWAP2 POP POP JUMP JUMPDEST PUSH0 PUSH20 0xFFFFFFFFFFFFFFFFFFFFFFFFFFFFFFFFFFFFFFFF DUP3 AND SWAP1 POP SWAP2 SWAP1 POP JUMP JUMPDEST PUSH0 PUSH2 0x50A DUP3 PUSH2 0x4E1 JUMP JUMPDEST SWAP1 POP SWAP2 SWAP1 POP JUMP JUMPDEST PUSH2 0x51A DUP2 PUSH2 0x500 JUMP JUMPDEST DUP3 MSTORE POP POP JUMP JUMPDEST PUSH0 PUSH1 0xA0 DUP3 ADD SWAP1 POP PUSH2 0x533 PUSH0 DUP4 ADD DUP9 PUSH2 0x448 JUMP JUMPDEST DUP2 DUP2 SUB PUSH1 0x20 DUP4 ADD MSTORE PUSH2 0x545 DUP2 DUP8 PUSH2 0x4A9 JUMP JUMPDEST SWAP1 POP PUSH2 0x554 PUSH1 0x40 DUP4 ADD DUP7 PUSH2 0x448 JUMP JUMPDEST DUP2 DUP2 SUB PUSH1 0x60 DUP4 ADD MSTORE PUSH2 0x566 DUP2 DUP6 PUSH2 0x4A9 JUMP JUMPDEST SWAP1 POP PUSH2 0x575 PUSH1 0x80 DUP4 ADD DUP5 PUSH2 0x511 JUMP JUMPDEST SWAP7 SWAP6 POP POP POP POP POP POP JUMP JUMPDEST PUSH0 DUP1 REVERT JUMPDEST PUSH0 DUP1 REVERT JUMPDEST PUSH32 0x4E487B7100000000000000000000000000000000000000000000000000000000 PUSH0 MSTORE PUSH1 0x41 PUSH1 0x4 MSTORE PUSH1 0x24 PUSH0 REVERT JUMPDEST PUSH2 0x5BD DUP3 PUSH2 0x499 JUMP JUMPDEST DUP2 ADD DUP2 DUP2 LT PUSH8 0xFFFFFFFFFFFFFFFF DUP3 GT OR ISZERO PUSH2 0x5DC JUMPI PUSH2 0x5DB PUSH2 0x587 JUMP JUMPDEST JUMPDEST DUP1 PUSH1 0x40 MSTORE POP POP POP JUMP JUMPDEST PUSH0 PUSH2 0x5EE PUSH2 0x3D9 JUMP JUMPDEST SWAP1 POP PUSH2 0x5FA DUP3 DUP3 PUSH2 0x5B4 JUMP JUMPDEST SWAP2 SWAP1 POP JUMP JUMPDEST PUSH0 PUSH8 0xFFFFFFFFFFFFFFFF DUP3 GT ISZERO PUSH2 0x619 JUMPI PUSH2 0x618 PUSH2 0x587 JUMP JUMPDEST JUMPDEST PUSH2 0x622 DUP3 PUSH2 0x499 JUMP JUMPDEST SWAP1 POP PUSH1 0x20 DUP2 ADD SWAP1 POP SWAP2 SWAP1 POP JUMP JUMPDEST DUP3 DUP2 DUP4 CALLDATACOPY PUSH0 DUP4 DUP4 ADD MSTORE POP POP POP JUMP JUMPDEST PUSH0 PUSH2 0x64F PUSH2 0x64A DUP5 PUSH2 0x5FF JUMP JUMPDEST PUSH2 0x5E5 JUMP JUMPDEST SWAP1 POP DUP3 DUP2 MSTORE PUSH1 0x20 DUP2 ADD DUP5 DUP5 DUP5 ADD GT ISZERO PUSH2 0x66B JUMPI PUSH2 0x66A PUSH2 0x583 JUMP JUMPDEST JUMPDEST PUSH2 0x676 DUP5 DUP3 DUP6 PUSH2 0x62F JUMP JUMPDEST POP SWAP4 SWAP3 POP POP POP JUMP JUMPDEST PUSH0 DUP3 PUSH1 0x1F DUP4 ADD SLT PUSH2 0x692 JUMPI PUSH2 0x691 PUSH2 0x57F JUMP JUMPDEST JUMPDEST DUP2 CALLDATALOAD PUSH2 0x6A2 DUP5 DUP3 PUSH1 0x20 DUP7 ADD PUSH2 0x63D JUMP JUMPDEST SWAP2 POP POP SWAP3 SWAP2 POP POP JUMP JUMPDEST PUSH2 0x6B4 DUP2 PUSH2 0x500 JUMP JUMPDEST DUP2 EQ PUSH2 0x6BE JUMPI PUSH0 DUP1 REVERT JUMPDEST POP JUMP JUMPDEST PUSH0 DUP2 CALLDATALOAD SWAP1 POP PUSH2 0x6CF DUP2 PUSH2 0x6AB JUMP JUMPDEST SWAP3 SWAP2 POP POP JUMP JUMPDEST PUSH0 DUP1 PUSH0 DUP1 PUSH0 PUSH1 0xA0 DUP7 DUP9 SUB SLT ISZERO PUSH2 0x6EE JUMPI PUSH2 0x6ED PUSH2 0x3E2 JUMP JUMPDEST JUMPDEST PUSH0 PUSH2 0x6FB DUP9 DUP3 DUP10 ADD PUSH2 0x409 JUMP JUMPDEST SWAP6 POP POP PUSH1 0x20 DUP7 ADD CALLDATALOAD PUSH8 0xFFFFFFFFFFFFFFFF DUP2 GT ISZERO PUSH2 0x71C JUMPI PUSH2 0x71B PUSH2 0x3E6 JUMP JUMPDEST JUMPDEST PUSH2 0x728 DUP9 DUP3 DUP10 ADD PUSH2 0x67E JUMP JUMPDEST SWAP5 POP POP PUSH1 0x40 PUSH2 0x739 DUP9 DUP3 DUP10 ADD PUSH2 0x409 JUMP JUMPDEST SWAP4 POP POP PUSH1 0x60 DUP7 ADD CALLDATALOAD PUSH8 0xFFFFFFFFFFFFFFFF DUP2 GT ISZERO PUSH2 0x75A JUMPI PUSH2 0x759 PUSH2 0x3E6 JUMP JUMPDEST JUMPDEST PUSH2 0x766 DUP9 DUP3 DUP10 ADD PUSH2 0x67E JUMP JUMPDEST SWAP3 POP POP PUSH1 0x80 PUSH2 0x777 DUP9 DUP3 DUP10 ADD PUSH2 0x6C1 JUMP JUMPDEST SWAP2 POP POP SWAP3 SWAP6 POP SWAP3 SWAP6 SWAP1 SWAP4 POP JUMP JUMPDEST PUSH32 0x4E487B7100000000000000000000000000000000000000000000000000000000 PUSH0 MSTORE PUSH1 0x22 PUSH1 0x4 MSTORE PUSH1 0x24 PUSH0 REVERT JUMPDEST PUSH0 PUSH1 0x2 DUP3 DIV SWAP1 POP PUSH1 0x1 DUP3 AND DUP1 PUSH2 0x7C8 JUMPI PUSH1 0x7F DUP3 AND SWAP2 POP JUMPDEST PUSH1 0x20 DUP3 LT DUP2 SUB PUSH2 0x7DB JUMPI PUSH2 0x7DA PUSH2 0x784 JUMP JUMPDEST JUMPDEST POP SWAP2 SWAP1 POP JUMP JUMPDEST PUSH0 DUP2 SWAP1 POP DUP2 PUSH0 MSTORE PUSH1 0x20 PUSH0 KECCAK256 SWAP1 POP SWAP2 SWAP1 POP JUMP JUMPDEST PUSH0 PUSH1 0x20 PUSH1 0x1F DUP4 ADD DIV SWAP1 POP SWAP2 SWAP1 POP JUMP JUMPDEST PUSH0 DUP3 DUP3 SHL SWAP1 POP SWAP3 SWAP2 POP POP JUMP JUMPDEST PUSH0 PUSH1 0x8 DUP4 MUL PUSH2 0x83D PUSH32 0xFFFFFFFFFFFFFFFFFFFFFFFFFFFFFFFFFFFFFFFFFFFFFFFFFFFFFFFFFFFFFFFF DUP3 PUSH2 0x802 JUMP JUMPDEST PUSH2 0x847 DUP7 DUP4 PUSH2 0x802 JUMP JUMPDEST SWAP6 POP DUP1 NOT DUP5 AND SWAP4 POP DUP1 DUP7 AND DUP5 OR SWAP3 POP POP POP SWAP4 SWAP3 POP POP POP JUMP JUMPDEST PUSH0 DUP2 SWAP1 POP SWAP2 SWAP1 POP JUMP JUMPDEST PUSH0 PUSH2 0x882 PUSH2 0x87D PUSH2 0x878 DUP5 PUSH2 0x3EA JUMP JUMPDEST PUSH2 0x85F JUMP JUMPDEST PUSH2 0x3EA JUMP JUMPDEST SWAP1 POP SWAP2 SWAP1 POP JUMP JUMPDEST PUSH0 DUP2 SWAP1 POP SWAP2 SWAP1 POP JUMP JUMPDEST PUSH2 0x89B DUP4 PUSH2 0x868 JUMP JUMPDEST PUSH2 0x8AF PUSH2 0x8A7 DUP3 PUSH2 0x889 JUMP JUMPDEST DUP5 DUP5 SLOAD PUSH2 0x80E JUMP JUMPDEST DUP3 SSTORE POP POP POP POP JUMP JUMPDEST PUSH0 SWAP1 JUMP JUMPDEST PUSH2 0x8C3 PUSH2 0x8B7 JUMP JUMPDEST PUSH2 0x8CE DUP2 DUP5 DUP5 PUSH2 0x892 JUMP JUMPDEST POP POP POP JUMP JUMPDEST JUMPDEST DUP2 DUP2 LT ISZERO PUSH2 0x8F1 JUMPI PUSH2 0x8E6 PUSH0 DUP3 PUSH2 0x8BB JUMP JUMPDEST PUSH1 0x1 DUP2 ADD SWAP1 POP PUSH2 0x8D4 JUMP JUMPDEST POP POP JUMP JUMPDEST PUSH1 0x1F DUP3 GT ISZERO PUSH2 0x936 JUMPI PUSH2 0x907 DUP2 PUSH2 0x7E1 JUMP JUMPDEST PUSH2 0x910 DUP5 PUSH2 0x7F3 JUMP JUMPDEST DUP2 ADD PUSH1 0x20 DUP6 LT ISZERO PUSH2 0x91F JUMPI DUP2 SWAP1 POP JUMPDEST PUSH2 0x933 PUSH2 0x92B DUP6 PUSH2 0x7F3 JUMP JUMPDEST DUP4 ADD DUP3 PUSH2 0x8D3 JUMP JUMPDEST POP POP JUMPDEST POP POP POP JUMP JUMPDEST PUSH0 DUP3 DUP3 SHR SWAP1 POP SWAP3 SWAP2 POP POP JUMP JUMPDEST PUSH0 PUSH2 0x956 PUSH0 NOT DUP5 PUSH1 0x8 MUL PUSH2 0x93B JUMP JUMPDEST NOT DUP1 DUP4 AND SWAP2 POP POP SWAP3 SWAP2 POP POP JUMP JUMPDEST PUSH0 PUSH2 0x96E DUP4 DUP4 PUSH2 0x947 JUMP JUMPDEST SWAP2 POP DUP3 PUSH1 0x2 MUL DUP3 OR SWAP1 POP SWAP3 SWAP2 POP POP JUMP JUMPDEST PUSH2 0x987 DUP3 PUSH2 0x457 JUMP JUMPDEST PUSH8 0xFFFFFFFFFFFFFFFF DUP2 GT ISZERO PUSH2 0x9A0 JUMPI PUSH2 0x99F PUSH2 0x587 JUMP JUMPDEST JUMPDEST PUSH2 0x9AA DUP3 SLOAD PUSH2 0x7B1 JUMP JUMPDEST PUSH2 0x9B5 DUP3 DUP3 DUP6 PUSH2 0x8F5 JUMP JUMPDEST PUSH0 PUSH1 0x20 SWAP1 POP PUSH1 0x1F DUP4 GT PUSH1 0x1 DUP2 EQ PUSH2 0x9E6 JUMPI PUSH0 DUP5 ISZERO PUSH2 0x9D4 JUMPI DUP3 DUP8 ADD MLOAD SWAP1 POP JUMPDEST PUSH2 0x9DE DUP6 DUP3 PUSH2 0x963 JUMP JUMPDEST DUP7 SSTORE POP PUSH2 0xA45 JUMP JUMPDEST PUSH1 0x1F NOT DUP5 AND PUSH2 0x9F4 DUP7 PUSH2 0x7E1 JUMP JUMPDEST PUSH0 JUMPDEST DUP3 DUP2 LT ISZERO PUSH2 0xA1B JUMPI DUP5 DUP10 ADD MLOAD DUP3 SSTORE PUSH1 0x1 DUP3 ADD SWAP2 POP PUSH1 0x20 DUP6 ADD SWAP5 POP PUSH1 0x20 DUP2 ADD SWAP1 POP PUSH2 0x9F6 JUMP JUMPDEST DUP7 DUP4 LT ISZERO PUSH2 0xA38 JUMPI DUP5 DUP10 ADD MLOAD PUSH2 0xA34 PUSH1 0x1F DUP10 AND DUP3 PUSH2 0x947 JUMP JUMPDEST DUP4 SSTORE POP JUMPDEST PUSH1 0x1 PUSH1 0x2 DUP9 MUL ADD DUP9 SSTORE POP POP POP JUMPDEST POP POP POP POP POP POP JUMP INVALID LOG2 PUSH5 0x6970667358 0x22 SLT KECCAK256 LOG4 0x25 0x1F CALLCODE PUSH3 0x60ADDC 0xC4 0xF7 SWAP8 PUSH29 0xFB9E55CBBDAA1EA68CB236BFE162BD5B882F228D64736F6C6343000814 STOP CALLER "
				},
				"gasEstimates": {
					"creation": {
						"codeDepositCost": "538200",
						"executionCost": "573",
						"totalCost": "538773"
					},
					"external": {
						"hapusBuku(uint256)": "infinite",
						"listOfBooks(uint256)": "infinite",
						"tambahBuku(uint256,string,uint256,string,address)": "infinite"
					}
				},
				"methodIdentifiers": {
					"hapusBuku(uint256)": "2e28a7ca",
					"listOfBooks(uint256)": "3088c00f",
					"tambahBuku(uint256,string,uint256,string,address)": "4a123e09"
				}
			},
			"storageLayout": {
				"storage": [
					{
						"astId": 6,
						"contract": "perpus.sol:Perpus",
						"label": "listOfBooks",
						"offset": 0,
						"slot": "0",
						"type": "t_mapping(t_uint256,t_struct(BookDetail)17_storage)"
					}
				],
				"types": {
					"t_address": {
						"encoding": "inplace",
						"label": "address",
						"numberOfBytes": "20"
					},
					"t_mapping(t_uint256,t_struct(BookDetail)17_storage)": {
						"encoding": "mapping",
						"key": "t_uint256",
						"label": "mapping(uint256 => struct Perpus.BookDetail)",
						"numberOfBytes": "32",
						"value": "t_struct(BookDetail)17_storage"
					},
					"t_string_storage": {
						"encoding": "bytes",
						"label": "string",
						"numberOfBytes": "32"
					},
					"t_struct(BookDetail)17_storage": {
						"encoding": "inplace",
						"label": "struct Perpus.BookDetail",
						"members": [
							{
								"astId": 8,
								"contract": "perpus.sol:Perpus",
								"label": "isbn",
								"offset": 0,
								"slot": "0",
								"type": "t_uint256"
							},
							{
								"astId": 10,
								"contract": "perpus.sol:Perpus",
								"label": "tittle",
								"offset": 0,
								"slot": "1",
								"type": "t_string_storage"
							},
							{
								"astId": 12,
								"contract": "perpus.sol:Perpus",
								"label": "yearBookCreated",
								"offset": 0,
								"slot": "2",
								"type": "t_uint256"
							},
							{
								"astId": 14,
								"contract": "perpus.sol:Perpus",
								"label": "writerName",
								"offset": 0,
								"slot": "3",
								"type": "t_string_storage"
							},
							{
								"astId": 16,
								"contract": "perpus.sol:Perpus",
								"label": "writerAddress",
								"offset": 0,
								"slot": "4",
								"type": "t_address"
							}
						],
						"numberOfBytes": "160"
					},
					"t_uint256": {
						"encoding": "inplace",
						"label": "uint256",
						"numberOfBytes": "32"
					}
				}
			},
			"userdoc": {
				"kind": "user",
				"methods": {},
				"version": 1
			}
		}
	}
}